{
  "contractName": "AddressImpl",
  "abi": [
    {
      "anonymous": false,
      "inputs": [
        {
          "indexed": false,
          "internalType": "string",
          "name": "data",
          "type": "string"
        }
      ],
      "name": "CallReturnValue",
      "type": "event"
    },
    {
      "inputs": [],
      "name": "sharedAnswer",
      "outputs": [
        {
          "internalType": "string",
          "name": "",
          "type": "string"
        }
      ],
      "stateMutability": "view",
      "type": "function"
    },
    {
      "stateMutability": "payable",
      "type": "receive"
    },
    {
      "inputs": [
        {
          "internalType": "address",
          "name": "account",
          "type": "address"
        }
      ],
      "name": "isContract",
      "outputs": [
        {
          "internalType": "bool",
          "name": "",
          "type": "bool"
        }
      ],
      "stateMutability": "view",
      "type": "function"
    },
    {
      "inputs": [
        {
          "internalType": "address payable",
          "name": "receiver",
          "type": "address"
        },
        {
          "internalType": "uint256",
          "name": "amount",
          "type": "uint256"
        }
      ],
      "name": "sendValue",
      "outputs": [],
      "stateMutability": "nonpayable",
      "type": "function"
    },
    {
      "inputs": [
        {
          "internalType": "address",
          "name": "target",
          "type": "address"
        },
        {
          "internalType": "bytes",
          "name": "data",
          "type": "bytes"
        }
      ],
      "name": "functionCall",
      "outputs": [],
      "stateMutability": "nonpayable",
      "type": "function"
    },
    {
      "inputs": [
        {
          "internalType": "address",
          "name": "target",
          "type": "address"
        },
        {
          "internalType": "bytes",
          "name": "data",
          "type": "bytes"
        },
        {
          "internalType": "uint256",
          "name": "value",
          "type": "uint256"
        }
      ],
      "name": "functionCallWithValue",
      "outputs": [],
      "stateMutability": "payable",
      "type": "function"
    },
    {
      "inputs": [
        {
          "internalType": "address",
          "name": "target",
          "type": "address"
        },
        {
          "internalType": "bytes",
          "name": "data",
          "type": "bytes"
        }
      ],
      "name": "functionStaticCall",
      "outputs": [],
      "stateMutability": "nonpayable",
      "type": "function"
    },
    {
      "inputs": [
        {
          "internalType": "address",
          "name": "target",
          "type": "address"
        },
        {
          "internalType": "bytes",
          "name": "data",
          "type": "bytes"
        }
      ],
      "name": "functionDelegateCall",
      "outputs": [],
      "stateMutability": "nonpayable",
      "type": "function"
    }
  ],
  "bytecode": "0x608060405234801561001057600080fd5b506112c7806100206000396000f3fe6080604052600436106100745760003560e01c8063a0b5ffb01161004e578063a0b5ffb014610102578063c21d36f31461012b578063ee33b7e214610154578063fc40cf731461017d5761007b565b8063162790551461008057806324a084df146100bd5780632a011594146100e65761007b565b3661007b57005b600080fd5b34801561008c57600080fd5b506100a760048036038101906100a29190610ad8565b6101a8565b6040516100b49190610f19565b60405180910390f35b3480156100c957600080fd5b506100e460048036038101906100df9190610b01565b6101ba565b005b61010060048036038101906100fb9190610b95565b6101c8565b005b34801561010e57600080fd5b5061012960048036038101906101249190610b3d565b61026c565b005b34801561013757600080fd5b50610152600480360381019061014d9190610b3d565b61030e565b005b34801561016057600080fd5b5061017b60048036038101906101769190610b3d565b6103b0565b005b34801561018957600080fd5b50610192610452565b60405161019f9190610f34565b60405180910390f35b60006101b3826104e0565b9050919050565b6101c482826104f3565b5050565b60006102198585858080601f016020809104026020016040519081016040528093929190818152602001838380828437600081840152601f19601f82011690508083019250505050505050846105e7565b90507fe518073da644d0626295bee74d5d5c51447a33857c62913bb30f35e2fba3db7c818060200190518101906102509190610c01565b60405161025d9190610f34565b60405180910390a15050505050565b60006102bc8484848080601f016020809104026020016040519081016040528093929190818152602001838380828437600081840152601f19601f82011690508083019250505050505050610616565b90507fe518073da644d0626295bee74d5d5c51447a33857c62913bb30f35e2fba3db7c818060200190518101906102f39190610c01565b6040516103009190610f34565b60405180910390a150505050565b600061035e8484848080601f016020809104026020016040519081016040528093929190818152602001838380828437600081840152601f19601f82011690508083019250505050505050610660565b90507fe518073da644d0626295bee74d5d5c51447a33857c62913bb30f35e2fba3db7c818060200190518101906103959190610c01565b6040516103a29190610f34565b60405180910390a150505050565b60006104008484848080601f016020809104026020016040519081016040528093929190818152602001838380828437600081840152601f19601f8201169050808301925050505050505061068d565b90507fe518073da644d0626295bee74d5d5c51447a33857c62913bb30f35e2fba3db7c818060200190518101906104379190610c01565b6040516104449190610f34565b60405180910390a150505050565b6000805461045f90611136565b80601f016020809104026020016040519081016040528092919081815260200182805461048b90611136565b80156104d85780601f106104ad576101008083540402835291602001916104d8565b820191906000526020600020905b8154815290600101906020018083116104bb57829003601f168201915b505050505081565b600080823b905060008111915050919050565b80471015610536576040517f08c379a000000000000000000000000000000000000000000000000000000000815260040161052d90610f76565b60405180910390fd5b60008273ffffffffffffffffffffffffffffffffffffffff168260405161055c90610f04565b60006040518083038185875af1925050503d8060008114610599576040519150601f19603f3d011682016040523d82523d6000602084013e61059e565b606091505b50509050806105e2576040517f08c379a00000000000000000000000000000000000000000000000000000000081526004016105d990610f56565b60405180910390fd5b505050565b606061060d84848460405180606001604052806029815260200161121d602991396106ba565b90509392505050565b606061065883836040518060400160405280601e81526020017f416464726573733a206c6f772d6c6576656c2063616c6c206661696c656400008152506107ce565b905092915050565b60606106858383604051806060016040528060258152602001611246602591396107e6565b905092915050565b60606106b2838360405180606001604052806027815260200161126b602791396108b3565b905092915050565b6060824710156106ff576040517f08c379a00000000000000000000000000000000000000000000000000000000081526004016106f690610f96565b60405180910390fd5b610708856104e0565b610747576040517f08c379a000000000000000000000000000000000000000000000000000000000815260040161073e90610ff6565b60405180910390fd5b6000808673ffffffffffffffffffffffffffffffffffffffff1685876040516107709190610eed565b60006040518083038185875af1925050503d80600081146107ad576040519150601f19603f3d011682016040523d82523d6000602084013e6107b2565b606091505b50915091506107c2828286610980565b92505050949350505050565b60606107dd84846000856106ba565b90509392505050565b60606107f1846104e0565b610830576040517f08c379a000000000000000000000000000000000000000000000000000000000815260040161082790610fd6565b60405180910390fd5b6000808573ffffffffffffffffffffffffffffffffffffffff16856040516108589190610eed565b600060405180830381855afa9150503d8060008114610893576040519150601f19603f3d011682016040523d82523d6000602084013e610898565b606091505b50915091506108a8828286610980565b925050509392505050565b60606108be846104e0565b6108fd576040517f08c379a00000000000000000000000000000000000000000000000000000000081526004016108f490610fb6565b60405180910390fd5b6000808573ffffffffffffffffffffffffffffffffffffffff16856040516109259190610eed565b600060405180830381855af49150503d8060008114610960576040519150601f19603f3d011682016040523d82523d6000602084013e610965565b606091505b5091509150610975828286610980565b925050509392505050565b60608315610990578290506109e0565b6000835111156109a35782518084602001fd5b816040517f08c379a00000000000000000000000000000000000000000000000000000000081526004016109d79190610f34565b60405180910390fd5b9392505050565b60006109fa6109f584611047565b611016565b905082815260208101848484011115610a1257600080fd5b610a1d848285611103565b509392505050565b600081359050610a34816111d7565b92915050565b600081359050610a49816111ee565b92915050565b60008083601f840112610a6157600080fd5b8235905067ffffffffffffffff811115610a7a57600080fd5b602083019150836001820283011115610a9257600080fd5b9250929050565b600082601f830112610aaa57600080fd5b8151610aba8482602086016109e7565b91505092915050565b600081359050610ad281611205565b92915050565b600060208284031215610aea57600080fd5b6000610af884828501610a25565b91505092915050565b60008060408385031215610b1457600080fd5b6000610b2285828601610a3a565b9250506020610b3385828601610ac3565b9150509250929050565b600080600060408486031215610b5257600080fd5b6000610b6086828701610a25565b935050602084013567ffffffffffffffff811115610b7d57600080fd5b610b8986828701610a4f565b92509250509250925092565b60008060008060608587031215610bab57600080fd5b6000610bb987828801610a25565b945050602085013567ffffffffffffffff811115610bd657600080fd5b610be287828801610a4f565b93509350506040610bf587828801610ac3565b91505092959194509250565b600060208284031215610c1357600080fd5b600082015167ffffffffffffffff811115610c2d57600080fd5b610c3984828501610a99565b91505092915050565b610c4b816110cd565b82525050565b6000610c5c82611077565b610c66818561108d565b9350610c76818560208601611103565b80840191505092915050565b6000610c8d82611082565b610c978185611098565b9350610ca7818560208601611103565b610cb0816111c6565b840191505092915050565b6000610cc8603a83611098565b91507f416464726573733a20756e61626c6520746f2073656e642076616c75652c207260008301527f6563697069656e74206d617920686176652072657665727465640000000000006020830152604082019050919050565b6000610d2e601d83611098565b91507f416464726573733a20696e73756666696369656e742062616c616e63650000006000830152602082019050919050565b6000610d6e602683611098565b91507f416464726573733a20696e73756666696369656e742062616c616e636520666f60008301527f722063616c6c00000000000000000000000000000000000000000000000000006020830152604082019050919050565b6000610dd4602683611098565b91507f416464726573733a2064656c65676174652063616c6c20746f206e6f6e2d636f60008301527f6e747261637400000000000000000000000000000000000000000000000000006020830152604082019050919050565b6000610e3a60008361108d565b9150600082019050919050565b6000610e54602483611098565b91507f416464726573733a207374617469632063616c6c20746f206e6f6e2d636f6e7460008301527f72616374000000000000000000000000000000000000000000000000000000006020830152604082019050919050565b6000610eba601d83611098565b91507f416464726573733a2063616c6c20746f206e6f6e2d636f6e74726163740000006000830152602082019050919050565b6000610ef98284610c51565b915081905092915050565b6000610f0f82610e2d565b9150819050919050565b6000602082019050610f2e6000830184610c42565b92915050565b60006020820190508181036000830152610f4e8184610c82565b905092915050565b60006020820190508181036000830152610f6f81610cbb565b9050919050565b60006020820190508181036000830152610f8f81610d21565b9050919050565b60006020820190508181036000830152610faf81610d61565b9050919050565b60006020820190508181036000830152610fcf81610dc7565b9050919050565b60006020820190508181036000830152610fef81610e47565b9050919050565b6000602082019050818103600083015261100f81610ead565b9050919050565b6000604051905081810181811067ffffffffffffffff8211171561103d5761103c611197565b5b8060405250919050565b600067ffffffffffffffff82111561106257611061611197565b5b601f19601f8301169050602081019050919050565b600081519050919050565b600081519050919050565b600081905092915050565b600082825260208201905092915050565b60006110b4826110d9565b9050919050565b60006110c6826110d9565b9050919050565b60008115159050919050565b600073ffffffffffffffffffffffffffffffffffffffff82169050919050565b6000819050919050565b60005b83811015611121578082015181840152602081019050611106565b83811115611130576000848401525b50505050565b6000600282049050600182168061114e57607f821691505b6020821081141561116257611161611168565b5b50919050565b7f4e487b7100000000000000000000000000000000000000000000000000000000600052602260045260246000fd5b7f4e487b7100000000000000000000000000000000000000000000000000000000600052604160045260246000fd5b6000601f19601f8301169050919050565b6111e0816110a9565b81146111eb57600080fd5b50565b6111f7816110bb565b811461120257600080fd5b50565b61120e816110f9565b811461121957600080fd5b5056fe416464726573733a206c6f772d6c6576656c2063616c6c20776974682076616c7565206661696c6564416464726573733a206c6f772d6c6576656c207374617469632063616c6c206661696c6564416464726573733a206c6f772d6c6576656c2064656c65676174652063616c6c206661696c6564a264697066735822122022262470a05b3bcd584700d651a7385bc1a64ff9ee4ef199402a7d5b1f3bedf864736f6c63430008000033",
  "immutableReferences": {},
  "source": "// SPDX-License-Identifier: MIT\r\n\r\npragma solidity ^0.8.0;\r\n\r\nimport \"../utils/Address.sol\";\r\n\r\ncontract AddressImpl {\r\n    string public sharedAnswer;\r\n\r\n    event CallReturnValue(string data);\r\n\r\n    function isContract(address account) external view returns (bool) {\r\n        return Address.isContract(account);\r\n    }\r\n\r\n    function sendValue(address payable receiver, uint256 amount) external {\r\n        Address.sendValue(receiver, amount);\r\n    }\r\n\r\n    function functionCall(address target, bytes calldata data) external {\r\n        bytes memory returnData = Address.functionCall(target, data);\r\n        emit CallReturnValue(abi.decode(returnData, (string)));\r\n    }\r\n\r\n    function functionCallWithValue(address target, bytes calldata data, uint256 value) external payable {\r\n        bytes memory returnData = Address.functionCallWithValue(target, data, value);\r\n        emit CallReturnValue(abi.decode(returnData, (string)));\r\n    }\r\n\r\n    function functionStaticCall(address target, bytes calldata data) external {\r\n        bytes memory returnData = Address.functionStaticCall(target, data);\r\n        emit CallReturnValue(abi.decode(returnData, (string)));\r\n    }\r\n\r\n    function functionDelegateCall(address target, bytes calldata data) external {\r\n        bytes memory returnData = Address.functionDelegateCall(target, data);\r\n        emit CallReturnValue(abi.decode(returnData, (string)));\r\n    }\r\n\r\n    // sendValue's tests require the contract to hold Ether\r\n    receive () external payable { }\r\n}\r\n",
  "sourcePath": "C:/Users/RogerGangaSundararaj/Documents/GitHub/openzeppelin-contracts/contracts/mocks/AddressImpl.sol",
  "compiler": {
    "name": "solc",
    "version": "0.8.0+commit.c7dfd78e.Emscripten.clang"
  },
  "schemaVersion": "3.2.3",
  "updatedAt": "2021-03-26T09:42:04.253Z",
  "devdoc": {
    "kind": "dev",
    "methods": {},
    "version": 1
  },
  "userdoc": {
    "kind": "user",
    "methods": {},
    "version": 1
  }
}