{
  "contractName": "ConditionalEscrowMock",
  "abi": [
    {
      "anonymous": false,
      "inputs": [
        {
          "indexed": true,
          "internalType": "address",
          "name": "payee",
          "type": "address"
        },
        {
          "indexed": false,
          "internalType": "uint256",
          "name": "weiAmount",
          "type": "uint256"
        }
      ],
      "name": "Deposited",
      "type": "event"
    },
    {
      "anonymous": false,
      "inputs": [
        {
          "indexed": true,
          "internalType": "address",
          "name": "previousOwner",
          "type": "address"
        },
        {
          "indexed": true,
          "internalType": "address",
          "name": "newOwner",
          "type": "address"
        }
      ],
      "name": "OwnershipTransferred",
      "type": "event"
    },
    {
      "anonymous": false,
      "inputs": [
        {
          "indexed": true,
          "internalType": "address",
          "name": "payee",
          "type": "address"
        },
        {
          "indexed": false,
          "internalType": "uint256",
          "name": "weiAmount",
          "type": "uint256"
        }
      ],
      "name": "Withdrawn",
      "type": "event"
    },
    {
      "inputs": [
        {
          "internalType": "address",
          "name": "payee",
          "type": "address"
        }
      ],
      "name": "deposit",
      "outputs": [],
      "stateMutability": "payable",
      "type": "function"
    },
    {
      "inputs": [
        {
          "internalType": "address",
          "name": "payee",
          "type": "address"
        }
      ],
      "name": "depositsOf",
      "outputs": [
        {
          "internalType": "uint256",
          "name": "",
          "type": "uint256"
        }
      ],
      "stateMutability": "view",
      "type": "function"
    },
    {
      "inputs": [],
      "name": "owner",
      "outputs": [
        {
          "internalType": "address",
          "name": "",
          "type": "address"
        }
      ],
      "stateMutability": "view",
      "type": "function"
    },
    {
      "inputs": [],
      "name": "renounceOwnership",
      "outputs": [],
      "stateMutability": "nonpayable",
      "type": "function"
    },
    {
      "inputs": [
        {
          "internalType": "address",
          "name": "newOwner",
          "type": "address"
        }
      ],
      "name": "transferOwnership",
      "outputs": [],
      "stateMutability": "nonpayable",
      "type": "function"
    },
    {
      "inputs": [
        {
          "internalType": "address payable",
          "name": "payee",
          "type": "address"
        }
      ],
      "name": "withdraw",
      "outputs": [],
      "stateMutability": "nonpayable",
      "type": "function"
    },
    {
      "inputs": [
        {
          "internalType": "address",
          "name": "payee",
          "type": "address"
        },
        {
          "internalType": "bool",
          "name": "allowed",
          "type": "bool"
        }
      ],
      "name": "setAllowed",
      "outputs": [],
      "stateMutability": "nonpayable",
      "type": "function"
    },
    {
      "inputs": [
        {
          "internalType": "address",
          "name": "payee",
          "type": "address"
        }
      ],
      "name": "withdrawalAllowed",
      "outputs": [
        {
          "internalType": "bool",
          "name": "",
          "type": "bool"
        }
      ],
      "stateMutability": "view",
      "type": "function"
    }
  ],
  "bytecode": "0x608060405234801561001057600080fd5b5060006100216100c460201b60201c565b9050806000806101000a81548173ffffffffffffffffffffffffffffffffffffffff021916908373ffffffffffffffffffffffffffffffffffffffff1602179055508073ffffffffffffffffffffffffffffffffffffffff16600073ffffffffffffffffffffffffffffffffffffffff167f8be0079c531659141344cd1fd0a4f28419497f9722a3daafe3b4186f6b6457e060405160405180910390a3506100cc565b600033905090565b610f4c806100db6000396000f3fe60806040526004361061007b5760003560e01c80638da5cb5b1161004e5780638da5cb5b14610126578063e3a9db1a14610151578063f2fde38b1461018e578063f340fa01146101b75761007b565b80634697f05d1461008057806351cff8d9146100a9578063685ca194146100d2578063715018a61461010f575b600080fd5b34801561008c57600080fd5b506100a760048036038101906100a29190610a9b565b6101d3565b005b3480156100b557600080fd5b506100d060048036038101906100cb9190610a72565b61022e565b005b3480156100de57600080fd5b506100f960048036038101906100f49190610a49565b610282565b6040516101069190610d00565b60405180910390f35b34801561011b57600080fd5b506101246102d8565b005b34801561013257600080fd5b5061013b610412565b6040516101489190610ce5565b60405180910390f35b34801561015d57600080fd5b5061017860048036038101906101739190610a49565b61043b565b6040516101859190610dbb565b60405180910390f35b34801561019a57600080fd5b506101b560048036038101906101b09190610a49565b610484565b005b6101d160048036038101906101cc9190610a49565b61062d565b005b80600260008473ffffffffffffffffffffffffffffffffffffffff1673ffffffffffffffffffffffffffffffffffffffff16815260200190815260200160002060006101000a81548160ff0219169083151502179055505050565b61023781610282565b610276576040517f08c379a000000000000000000000000000000000000000000000000000000000815260040161026d90610d7b565b60405180910390fd5b61027f8161078e565b50565b6000600260008373ffffffffffffffffffffffffffffffffffffffff1673ffffffffffffffffffffffffffffffffffffffff16815260200190815260200160002060009054906101000a900460ff169050919050565b6102e061090e565b73ffffffffffffffffffffffffffffffffffffffff166102fe610412565b73ffffffffffffffffffffffffffffffffffffffff1614610354576040517f08c379a000000000000000000000000000000000000000000000000000000000815260040161034b90610d9b565b60405180910390fd5b600073ffffffffffffffffffffffffffffffffffffffff1660008054906101000a900473ffffffffffffffffffffffffffffffffffffffff1673ffffffffffffffffffffffffffffffffffffffff167f8be0079c531659141344cd1fd0a4f28419497f9722a3daafe3b4186f6b6457e060405160405180910390a360008060006101000a81548173ffffffffffffffffffffffffffffffffffffffff021916908373ffffffffffffffffffffffffffffffffffffffff160217905550565b60008060009054906101000a900473ffffffffffffffffffffffffffffffffffffffff16905090565b6000600160008373ffffffffffffffffffffffffffffffffffffffff1673ffffffffffffffffffffffffffffffffffffffff168152602001908152602001600020549050919050565b61048c61090e565b73ffffffffffffffffffffffffffffffffffffffff166104aa610412565b73ffffffffffffffffffffffffffffffffffffffff1614610500576040517f08c379a00000000000000000000000000000000000000000000000000000000081526004016104f790610d9b565b60405180910390fd5b600073ffffffffffffffffffffffffffffffffffffffff168173ffffffffffffffffffffffffffffffffffffffff161415610570576040517f08c379a000000000000000000000000000000000000000000000000000000000815260040161056790610d1b565b60405180910390fd5b8073ffffffffffffffffffffffffffffffffffffffff1660008054906101000a900473ffffffffffffffffffffffffffffffffffffffff1673ffffffffffffffffffffffffffffffffffffffff167f8be0079c531659141344cd1fd0a4f28419497f9722a3daafe3b4186f6b6457e060405160405180910390a3806000806101000a81548173ffffffffffffffffffffffffffffffffffffffff021916908373ffffffffffffffffffffffffffffffffffffffff16021790555050565b61063561090e565b73ffffffffffffffffffffffffffffffffffffffff16610653610412565b73ffffffffffffffffffffffffffffffffffffffff16146106a9576040517f08c379a00000000000000000000000000000000000000000000000000000000081526004016106a090610d9b565b60405180910390fd5b600034905080600160008473ffffffffffffffffffffffffffffffffffffffff1673ffffffffffffffffffffffffffffffffffffffff168152602001908152602001600020546106f99190610df2565b600160008473ffffffffffffffffffffffffffffffffffffffff1673ffffffffffffffffffffffffffffffffffffffff168152602001908152602001600020819055508173ffffffffffffffffffffffffffffffffffffffff167f2da466a7b24304f47e87fa2e1e5a81b9831ce54fec19055ce277ca2f39ba42c4826040516107829190610dbb565b60405180910390a25050565b61079661090e565b73ffffffffffffffffffffffffffffffffffffffff166107b4610412565b73ffffffffffffffffffffffffffffffffffffffff161461080a576040517f08c379a000000000000000000000000000000000000000000000000000000000815260040161080190610d9b565b60405180910390fd5b6000600160008373ffffffffffffffffffffffffffffffffffffffff1673ffffffffffffffffffffffffffffffffffffffff1681526020019081526020016000205490506000600160008473ffffffffffffffffffffffffffffffffffffffff1673ffffffffffffffffffffffffffffffffffffffff168152602001908152602001600020819055506108bc818373ffffffffffffffffffffffffffffffffffffffff1661091690919063ffffffff16565b8173ffffffffffffffffffffffffffffffffffffffff167f7084f5476618d8e60b11ef0d7d3f06914655adb8793e28ff7f018d4c76d505d5826040516109029190610dbb565b60405180910390a25050565b600033905090565b80471015610959576040517f08c379a000000000000000000000000000000000000000000000000000000000815260040161095090610d5b565b60405180910390fd5b60008273ffffffffffffffffffffffffffffffffffffffff168260405161097f90610cd0565b60006040518083038185875af1925050503d80600081146109bc576040519150601f19603f3d011682016040523d82523d6000602084013e6109c1565b606091505b5050905080610a05576040517f08c379a00000000000000000000000000000000000000000000000000000000081526004016109fc90610d3b565b60405180910390fd5b505050565b600081359050610a1981610ed1565b92915050565b600081359050610a2e81610ee8565b92915050565b600081359050610a4381610eff565b92915050565b600060208284031215610a5b57600080fd5b6000610a6984828501610a0a565b91505092915050565b600060208284031215610a8457600080fd5b6000610a9284828501610a1f565b91505092915050565b60008060408385031215610aae57600080fd5b6000610abc85828601610a0a565b9250506020610acd85828601610a34565b9150509250929050565b610ae081610e48565b82525050565b610aef81610e6c565b82525050565b6000610b02602683610de1565b91507f4f776e61626c653a206e6577206f776e657220697320746865207a65726f206160008301527f64647265737300000000000000000000000000000000000000000000000000006020830152604082019050919050565b6000610b68603a83610de1565b91507f416464726573733a20756e61626c6520746f2073656e642076616c75652c207260008301527f6563697069656e74206d617920686176652072657665727465640000000000006020830152604082019050919050565b6000610bce601d83610de1565b91507f416464726573733a20696e73756666696369656e742062616c616e63650000006000830152602082019050919050565b6000610c0e603383610de1565b91507f436f6e646974696f6e616c457363726f773a207061796565206973206e6f742060008301527f616c6c6f77656420746f207769746864726177000000000000000000000000006020830152604082019050919050565b6000610c74602083610de1565b91507f4f776e61626c653a2063616c6c6572206973206e6f7420746865206f776e65726000830152602082019050919050565b6000610cb4600083610dd6565b9150600082019050919050565b610cca81610e98565b82525050565b6000610cdb82610ca7565b9150819050919050565b6000602082019050610cfa6000830184610ad7565b92915050565b6000602082019050610d156000830184610ae6565b92915050565b60006020820190508181036000830152610d3481610af5565b9050919050565b60006020820190508181036000830152610d5481610b5b565b9050919050565b60006020820190508181036000830152610d7481610bc1565b9050919050565b60006020820190508181036000830152610d9481610c01565b9050919050565b60006020820190508181036000830152610db481610c67565b9050919050565b6000602082019050610dd06000830184610cc1565b92915050565b600081905092915050565b600082825260208201905092915050565b6000610dfd82610e98565b9150610e0883610e98565b9250827fffffffffffffffffffffffffffffffffffffffffffffffffffffffffffffffff03821115610e3d57610e3c610ea2565b5b828201905092915050565b6000610e5382610e78565b9050919050565b6000610e6582610e78565b9050919050565b60008115159050919050565b600073ffffffffffffffffffffffffffffffffffffffff82169050919050565b6000819050919050565b7f4e487b7100000000000000000000000000000000000000000000000000000000600052601160045260246000fd5b610eda81610e48565b8114610ee557600080fd5b50565b610ef181610e5a565b8114610efc57600080fd5b50565b610f0881610e6c565b8114610f1357600080fd5b5056fea2646970667358221220b36da85114194d4ac5b7ccc552d418148980091ac585c4c9d9145322ef70a96d64736f6c63430008000033",
  "immutableReferences": {},
  "source": "// SPDX-License-Identifier: MIT\r\n\r\npragma solidity ^0.8.0;\r\n\r\nimport \"../utils/escrow/ConditionalEscrow.sol\";\r\n\r\n// mock class using ConditionalEscrow\r\ncontract ConditionalEscrowMock is ConditionalEscrow {\r\n    mapping(address => bool) private _allowed;\r\n\r\n    function setAllowed(address payee, bool allowed) public {\r\n        _allowed[payee] = allowed;\r\n    }\r\n\r\n    function withdrawalAllowed(address payee) public view override returns (bool) {\r\n        return _allowed[payee];\r\n    }\r\n}\r\n",
  "sourcePath": "C:/Users/RogerGangaSundararaj/Documents/GitHub/openzeppelin-contracts/contracts/mocks/ConditionalEscrowMock.sol",
  "compiler": {
    "name": "solc",
    "version": "0.8.0+commit.c7dfd78e.Emscripten.clang"
  },
  "schemaVersion": "3.2.3",
  "updatedAt": "2021-03-26T09:42:05.427Z",
  "devdoc": {
    "kind": "dev",
    "methods": {
      "deposit(address)": {
        "details": "Stores the sent amount as credit to be withdrawn.",
        "params": {
          "payee": "The destination address of the funds."
        }
      },
      "owner()": {
        "details": "Returns the address of the current owner."
      },
      "renounceOwnership()": {
        "details": "Leaves the contract without owner. It will not be possible to call `onlyOwner` functions anymore. Can only be called by the current owner. NOTE: Renouncing ownership will leave the contract without an owner, thereby removing any functionality that is only available to the owner."
      },
      "transferOwnership(address)": {
        "details": "Transfers ownership of the contract to a new account (`newOwner`). Can only be called by the current owner."
      },
      "withdraw(address)": {
        "details": "Withdraw accumulated balance for a payee, forwarding all gas to the recipient. WARNING: Forwarding all gas opens the door to reentrancy vulnerabilities. Make sure you trust the recipient, or are either following the checks-effects-interactions pattern or using {ReentrancyGuard}.",
        "params": {
          "payee": "The address whose funds will be withdrawn and transferred to."
        }
      },
      "withdrawalAllowed(address)": {
        "details": "Returns whether an address is allowed to withdraw their funds. To be implemented by derived contracts.",
        "params": {
          "payee": "The destination address of the funds."
        }
      }
    },
    "version": 1
  },
  "userdoc": {
    "kind": "user",
    "methods": {},
    "version": 1
  }
}