{
  "contractName": "ECDSAMock",
  "abi": [
    {
      "inputs": [
        {
          "internalType": "bytes32",
          "name": "hash",
          "type": "bytes32"
        },
        {
          "internalType": "bytes",
          "name": "signature",
          "type": "bytes"
        }
      ],
      "name": "recover",
      "outputs": [
        {
          "internalType": "address",
          "name": "",
          "type": "address"
        }
      ],
      "stateMutability": "pure",
      "type": "function"
    },
    {
      "inputs": [
        {
          "internalType": "bytes32",
          "name": "hash",
          "type": "bytes32"
        }
      ],
      "name": "toEthSignedMessageHash",
      "outputs": [
        {
          "internalType": "bytes32",
          "name": "",
          "type": "bytes32"
        }
      ],
      "stateMutability": "pure",
      "type": "function"
    }
  ],
  "bytecode": "0x608060405234801561001057600080fd5b50610845806100206000396000f3fe608060405234801561001057600080fd5b50600436106100365760003560e01c806319045a251461003b578063918a15cf1461006b575b600080fd5b610055600480360381019061005091906103a5565b61009b565b60405161006291906105ef565b60405180910390f35b6100856004803603810190610080919061037c565b6100b8565b604051610092919061060a565b60405180910390f35b60006100b082846100ca90919063ffffffff16565b905092915050565b60006100c382610144565b9050919050565b60006041825114610110576040517f08c379a00000000000000000000000000000000000000000000000000000000081526004016101079061068a565b60405180910390fd5b60008060006020850151925060408501519150606085015160001a905061013986828585610174565b935050505092915050565b60008160405160200161015791906105c9565b604051602081830303815290604052805190602001209050919050565b60007f7fffffffffffffffffffffffffffffff5d576e7357a4501ddfe92f46681b20a08260001c11156101dc576040517f08c379a00000000000000000000000000000000000000000000000000000000081526004016101d3906106aa565b60405180910390fd5b601b8460ff1614806101f15750601c8460ff16145b610230576040517f08c379a0000000000000000000000000000000000000000000000000000000008152600401610227906106ca565b60405180910390fd5b6000600186868686604051600081526020016040526040516102559493929190610625565b6020604051602081039080840390855afa158015610277573d6000803e3d6000fd5b505050602060405103519050600073ffffffffffffffffffffffffffffffffffffffff168173ffffffffffffffffffffffffffffffffffffffff1614156102f3576040517f08c379a00000000000000000000000000000000000000000000000000000000081526004016102ea9061066a565b60405180910390fd5b80915050949350505050565b600061031261030d8461071b565b6106ea565b90508281526020810184848401111561032a57600080fd5b6103358482856107b0565b509392505050565b60008135905061034c816107f8565b92915050565b600082601f83011261036357600080fd5b81356103738482602086016102ff565b91505092915050565b60006020828403121561038e57600080fd5b600061039c8482850161033d565b91505092915050565b600080604083850312156103b857600080fd5b60006103c68582860161033d565b925050602083013567ffffffffffffffff8111156103e357600080fd5b6103ef85828601610352565b9150509250929050565b61040281610767565b82525050565b61041181610779565b82525050565b61042861042382610779565b6107bf565b82525050565b600061043b60188361074b565b91507f45434453413a20696e76616c6964207369676e617475726500000000000000006000830152602082019050919050565b600061047b601f8361074b565b91507f45434453413a20696e76616c6964207369676e6174757265206c656e677468006000830152602082019050919050565b60006104bb601c8361075c565b91507f19457468657265756d205369676e6564204d6573736167653a0a3332000000006000830152601c82019050919050565b60006104fb60228361074b565b91507f45434453413a20696e76616c6964207369676e6174757265202773272076616c60008301527f75650000000000000000000000000000000000000000000000000000000000006020830152604082019050919050565b600061056160228361074b565b91507f45434453413a20696e76616c6964207369676e6174757265202776272076616c60008301527f75650000000000000000000000000000000000000000000000000000000000006020830152604082019050919050565b6105c3816107a3565b82525050565b60006105d4826104ae565b91506105e08284610417565b60208201915081905092915050565b600060208201905061060460008301846103f9565b92915050565b600060208201905061061f6000830184610408565b92915050565b600060808201905061063a6000830187610408565b61064760208301866105ba565b6106546040830185610408565b6106616060830184610408565b95945050505050565b600060208201905081810360008301526106838161042e565b9050919050565b600060208201905081810360008301526106a38161046e565b9050919050565b600060208201905081810360008301526106c3816104ee565b9050919050565b600060208201905081810360008301526106e381610554565b9050919050565b6000604051905081810181811067ffffffffffffffff82111715610711576107106107c9565b5b8060405250919050565b600067ffffffffffffffff821115610736576107356107c9565b5b601f19601f8301169050602081019050919050565b600082825260208201905092915050565b600081905092915050565b600061077282610783565b9050919050565b6000819050919050565b600073ffffffffffffffffffffffffffffffffffffffff82169050919050565b600060ff82169050919050565b82818337600083830152505050565b6000819050919050565b7f4e487b7100000000000000000000000000000000000000000000000000000000600052604160045260246000fd5b61080181610779565b811461080c57600080fd5b5056fea2646970667358221220c9d6b952612f0305b75f82b28623c31b42137fc01ef6cca4b9f1176f387f626864736f6c63430008000033",
  "immutableReferences": {},
  "source": "// SPDX-License-Identifier: MIT\r\n\r\npragma solidity ^0.8.0;\r\n\r\nimport \"../utils/cryptography/ECDSA.sol\";\r\n\r\ncontract ECDSAMock {\r\n    using ECDSA for bytes32;\r\n\r\n    function recover(bytes32 hash, bytes memory signature) public pure returns (address) {\r\n        return hash.recover(signature);\r\n    }\r\n\r\n    function toEthSignedMessageHash(bytes32 hash) public pure returns (bytes32) {\r\n        return hash.toEthSignedMessageHash();\r\n    }\r\n}\r\n",
  "sourcePath": "C:/Users/RogerGangaSundararaj/Documents/GitHub/openzeppelin-contracts/contracts/mocks/ECDSAMock.sol",
  "compiler": {
    "name": "solc",
    "version": "0.8.0+commit.c7dfd78e.Emscripten.clang"
  },
  "schemaVersion": "3.2.3",
  "updatedAt": "2021-03-26T09:42:07.392Z",
  "devdoc": {
    "kind": "dev",
    "methods": {},
    "version": 1
  },
  "userdoc": {
    "kind": "user",
    "methods": {},
    "version": 1
  }
}