{
  "contractName": "GeoRewards",
  "abi": [
    {
      "inputs": [
        {
          "internalType": "string",
          "name": "name",
          "type": "string"
        },
        {
          "internalType": "string",
          "name": "symbol",
          "type": "string"
        },
        {
          "internalType": "string",
          "name": "baseTokenURI",
          "type": "string"
        }
      ],
      "stateMutability": "nonpayable",
      "type": "constructor"
    },
    {
      "anonymous": false,
      "inputs": [
        {
          "indexed": true,
          "internalType": "address",
          "name": "owner",
          "type": "address"
        },
        {
          "indexed": true,
          "internalType": "address",
          "name": "approved",
          "type": "address"
        },
        {
          "indexed": true,
          "internalType": "uint256",
          "name": "tokenId",
          "type": "uint256"
        }
      ],
      "name": "Approval",
      "type": "event"
    },
    {
      "anonymous": false,
      "inputs": [
        {
          "indexed": true,
          "internalType": "address",
          "name": "owner",
          "type": "address"
        },
        {
          "indexed": true,
          "internalType": "address",
          "name": "operator",
          "type": "address"
        },
        {
          "indexed": false,
          "internalType": "bool",
          "name": "approved",
          "type": "bool"
        }
      ],
      "name": "ApprovalForAll",
      "type": "event"
    },
    {
      "anonymous": false,
      "inputs": [
        {
          "indexed": false,
          "internalType": "address",
          "name": "account",
          "type": "address"
        }
      ],
      "name": "Paused",
      "type": "event"
    },
    {
      "anonymous": false,
      "inputs": [
        {
          "indexed": true,
          "internalType": "bytes32",
          "name": "role",
          "type": "bytes32"
        },
        {
          "indexed": true,
          "internalType": "bytes32",
          "name": "previousAdminRole",
          "type": "bytes32"
        },
        {
          "indexed": true,
          "internalType": "bytes32",
          "name": "newAdminRole",
          "type": "bytes32"
        }
      ],
      "name": "RoleAdminChanged",
      "type": "event"
    },
    {
      "anonymous": false,
      "inputs": [
        {
          "indexed": true,
          "internalType": "bytes32",
          "name": "role",
          "type": "bytes32"
        },
        {
          "indexed": true,
          "internalType": "address",
          "name": "account",
          "type": "address"
        },
        {
          "indexed": true,
          "internalType": "address",
          "name": "sender",
          "type": "address"
        }
      ],
      "name": "RoleGranted",
      "type": "event"
    },
    {
      "anonymous": false,
      "inputs": [
        {
          "indexed": true,
          "internalType": "bytes32",
          "name": "role",
          "type": "bytes32"
        },
        {
          "indexed": true,
          "internalType": "address",
          "name": "account",
          "type": "address"
        },
        {
          "indexed": true,
          "internalType": "address",
          "name": "sender",
          "type": "address"
        }
      ],
      "name": "RoleRevoked",
      "type": "event"
    },
    {
      "anonymous": false,
      "inputs": [
        {
          "indexed": true,
          "internalType": "address",
          "name": "from",
          "type": "address"
        },
        {
          "indexed": true,
          "internalType": "address",
          "name": "to",
          "type": "address"
        },
        {
          "indexed": true,
          "internalType": "uint256",
          "name": "tokenId",
          "type": "uint256"
        }
      ],
      "name": "Transfer",
      "type": "event"
    },
    {
      "anonymous": false,
      "inputs": [
        {
          "indexed": false,
          "internalType": "address",
          "name": "account",
          "type": "address"
        }
      ],
      "name": "Unpaused",
      "type": "event"
    },
    {
      "inputs": [],
      "name": "DEFAULT_ADMIN_ROLE",
      "outputs": [
        {
          "internalType": "bytes32",
          "name": "",
          "type": "bytes32"
        }
      ],
      "stateMutability": "view",
      "type": "function"
    },
    {
      "inputs": [],
      "name": "MINTER_ROLE",
      "outputs": [
        {
          "internalType": "bytes32",
          "name": "",
          "type": "bytes32"
        }
      ],
      "stateMutability": "view",
      "type": "function"
    },
    {
      "inputs": [],
      "name": "PAUSER_ROLE",
      "outputs": [
        {
          "internalType": "bytes32",
          "name": "",
          "type": "bytes32"
        }
      ],
      "stateMutability": "view",
      "type": "function"
    },
    {
      "inputs": [
        {
          "internalType": "address",
          "name": "to",
          "type": "address"
        },
        {
          "internalType": "uint256",
          "name": "tokenId",
          "type": "uint256"
        }
      ],
      "name": "approve",
      "outputs": [],
      "stateMutability": "nonpayable",
      "type": "function"
    },
    {
      "inputs": [
        {
          "internalType": "address",
          "name": "owner",
          "type": "address"
        }
      ],
      "name": "balanceOf",
      "outputs": [
        {
          "internalType": "uint256",
          "name": "",
          "type": "uint256"
        }
      ],
      "stateMutability": "view",
      "type": "function"
    },
    {
      "inputs": [
        {
          "internalType": "uint256",
          "name": "tokenId",
          "type": "uint256"
        }
      ],
      "name": "burn",
      "outputs": [],
      "stateMutability": "nonpayable",
      "type": "function"
    },
    {
      "inputs": [
        {
          "internalType": "uint256",
          "name": "tokenId",
          "type": "uint256"
        }
      ],
      "name": "getApproved",
      "outputs": [
        {
          "internalType": "address",
          "name": "",
          "type": "address"
        }
      ],
      "stateMutability": "view",
      "type": "function"
    },
    {
      "inputs": [
        {
          "internalType": "bytes32",
          "name": "role",
          "type": "bytes32"
        }
      ],
      "name": "getRoleAdmin",
      "outputs": [
        {
          "internalType": "bytes32",
          "name": "",
          "type": "bytes32"
        }
      ],
      "stateMutability": "view",
      "type": "function"
    },
    {
      "inputs": [
        {
          "internalType": "bytes32",
          "name": "role",
          "type": "bytes32"
        },
        {
          "internalType": "uint256",
          "name": "index",
          "type": "uint256"
        }
      ],
      "name": "getRoleMember",
      "outputs": [
        {
          "internalType": "address",
          "name": "",
          "type": "address"
        }
      ],
      "stateMutability": "view",
      "type": "function"
    },
    {
      "inputs": [
        {
          "internalType": "bytes32",
          "name": "role",
          "type": "bytes32"
        }
      ],
      "name": "getRoleMemberCount",
      "outputs": [
        {
          "internalType": "uint256",
          "name": "",
          "type": "uint256"
        }
      ],
      "stateMutability": "view",
      "type": "function"
    },
    {
      "inputs": [
        {
          "internalType": "bytes32",
          "name": "role",
          "type": "bytes32"
        },
        {
          "internalType": "address",
          "name": "account",
          "type": "address"
        }
      ],
      "name": "grantRole",
      "outputs": [],
      "stateMutability": "nonpayable",
      "type": "function"
    },
    {
      "inputs": [
        {
          "internalType": "bytes32",
          "name": "role",
          "type": "bytes32"
        },
        {
          "internalType": "address",
          "name": "account",
          "type": "address"
        }
      ],
      "name": "hasRole",
      "outputs": [
        {
          "internalType": "bool",
          "name": "",
          "type": "bool"
        }
      ],
      "stateMutability": "view",
      "type": "function"
    },
    {
      "inputs": [
        {
          "internalType": "address",
          "name": "owner",
          "type": "address"
        },
        {
          "internalType": "address",
          "name": "operator",
          "type": "address"
        }
      ],
      "name": "isApprovedForAll",
      "outputs": [
        {
          "internalType": "bool",
          "name": "",
          "type": "bool"
        }
      ],
      "stateMutability": "view",
      "type": "function"
    },
    {
      "inputs": [],
      "name": "name",
      "outputs": [
        {
          "internalType": "string",
          "name": "",
          "type": "string"
        }
      ],
      "stateMutability": "view",
      "type": "function"
    },
    {
      "inputs": [
        {
          "internalType": "uint256",
          "name": "tokenId",
          "type": "uint256"
        }
      ],
      "name": "ownerOf",
      "outputs": [
        {
          "internalType": "address",
          "name": "",
          "type": "address"
        }
      ],
      "stateMutability": "view",
      "type": "function"
    },
    {
      "inputs": [],
      "name": "paused",
      "outputs": [
        {
          "internalType": "bool",
          "name": "",
          "type": "bool"
        }
      ],
      "stateMutability": "view",
      "type": "function"
    },
    {
      "inputs": [
        {
          "internalType": "bytes32",
          "name": "role",
          "type": "bytes32"
        },
        {
          "internalType": "address",
          "name": "account",
          "type": "address"
        }
      ],
      "name": "renounceRole",
      "outputs": [],
      "stateMutability": "nonpayable",
      "type": "function"
    },
    {
      "inputs": [
        {
          "internalType": "bytes32",
          "name": "role",
          "type": "bytes32"
        },
        {
          "internalType": "address",
          "name": "account",
          "type": "address"
        }
      ],
      "name": "revokeRole",
      "outputs": [],
      "stateMutability": "nonpayable",
      "type": "function"
    },
    {
      "inputs": [
        {
          "internalType": "address",
          "name": "from",
          "type": "address"
        },
        {
          "internalType": "address",
          "name": "to",
          "type": "address"
        },
        {
          "internalType": "uint256",
          "name": "tokenId",
          "type": "uint256"
        }
      ],
      "name": "safeTransferFrom",
      "outputs": [],
      "stateMutability": "nonpayable",
      "type": "function"
    },
    {
      "inputs": [
        {
          "internalType": "address",
          "name": "from",
          "type": "address"
        },
        {
          "internalType": "address",
          "name": "to",
          "type": "address"
        },
        {
          "internalType": "uint256",
          "name": "tokenId",
          "type": "uint256"
        },
        {
          "internalType": "bytes",
          "name": "_data",
          "type": "bytes"
        }
      ],
      "name": "safeTransferFrom",
      "outputs": [],
      "stateMutability": "nonpayable",
      "type": "function"
    },
    {
      "inputs": [
        {
          "internalType": "address",
          "name": "operator",
          "type": "address"
        },
        {
          "internalType": "bool",
          "name": "approved",
          "type": "bool"
        }
      ],
      "name": "setApprovalForAll",
      "outputs": [],
      "stateMutability": "nonpayable",
      "type": "function"
    },
    {
      "inputs": [],
      "name": "symbol",
      "outputs": [
        {
          "internalType": "string",
          "name": "",
          "type": "string"
        }
      ],
      "stateMutability": "view",
      "type": "function"
    },
    {
      "inputs": [
        {
          "internalType": "uint256",
          "name": "index",
          "type": "uint256"
        }
      ],
      "name": "tokenByIndex",
      "outputs": [
        {
          "internalType": "uint256",
          "name": "",
          "type": "uint256"
        }
      ],
      "stateMutability": "view",
      "type": "function"
    },
    {
      "inputs": [
        {
          "internalType": "address",
          "name": "owner",
          "type": "address"
        },
        {
          "internalType": "uint256",
          "name": "index",
          "type": "uint256"
        }
      ],
      "name": "tokenOfOwnerByIndex",
      "outputs": [
        {
          "internalType": "uint256",
          "name": "",
          "type": "uint256"
        }
      ],
      "stateMutability": "view",
      "type": "function"
    },
    {
      "inputs": [
        {
          "internalType": "uint256",
          "name": "tokenId",
          "type": "uint256"
        }
      ],
      "name": "tokenURI",
      "outputs": [
        {
          "internalType": "string",
          "name": "",
          "type": "string"
        }
      ],
      "stateMutability": "view",
      "type": "function"
    },
    {
      "inputs": [],
      "name": "totalSupply",
      "outputs": [
        {
          "internalType": "uint256",
          "name": "",
          "type": "uint256"
        }
      ],
      "stateMutability": "view",
      "type": "function"
    },
    {
      "inputs": [
        {
          "internalType": "address",
          "name": "from",
          "type": "address"
        },
        {
          "internalType": "address",
          "name": "to",
          "type": "address"
        },
        {
          "internalType": "uint256",
          "name": "tokenId",
          "type": "uint256"
        }
      ],
      "name": "transferFrom",
      "outputs": [],
      "stateMutability": "nonpayable",
      "type": "function"
    },
    {
      "inputs": [
        {
          "internalType": "address",
          "name": "to",
          "type": "address"
        }
      ],
      "name": "mint",
      "outputs": [],
      "stateMutability": "nonpayable",
      "type": "function"
    },
    {
      "inputs": [],
      "name": "getNextTokenId",
      "outputs": [
        {
          "internalType": "uint256",
          "name": "",
          "type": "uint256"
        }
      ],
      "stateMutability": "view",
      "type": "function"
    },
    {
      "inputs": [],
      "name": "pause",
      "outputs": [],
      "stateMutability": "nonpayable",
      "type": "function"
    },
    {
      "inputs": [],
      "name": "unpause",
      "outputs": [],
      "stateMutability": "nonpayable",
      "type": "function"
    },
    {
      "inputs": [
        {
          "internalType": "bytes4",
          "name": "interfaceId",
          "type": "bytes4"
        }
      ],
      "name": "supportsInterface",
      "outputs": [
        {
          "internalType": "bool",
          "name": "",
          "type": "bool"
        }
      ],
      "stateMutability": "view",
      "type": "function"
    }
  ],
  "bytecode": "0x60806040523480156200001157600080fd5b5060405162004c6938038062004c69833981810160405281019062000037919062000508565b8282816002908051906020019062000051929190620003e6565b5080600390805190602001906200006a929190620003e6565b5050506000600c60006101000a81548160ff02191690831515021790555080600e9080519060200190620000a0929190620003e6565b50620000c56000801b620000b96200015060201b60201c565b6200015860201b60201c565b620001067f9f2df0fed2c77648de5860a4cc508cd0818c85b8b8a1ab4ceeef8d981c8956a6620000fa6200015060201b60201c565b6200015860201b60201c565b620001477f65d7a28e3265b37a6474929f336521b332c1681b933f6cb9f3376673440d862a6200013b6200015060201b60201c565b6200015860201b60201c565b505050620006da565b600033905090565b6200016f8282620001a060201b620013441760201c565b6200019b8160016000858152602001908152602001600020620001b660201b620013521790919060201c565b505050565b620001b28282620001ee60201b60201c565b5050565b6000620001e6836000018373ffffffffffffffffffffffffffffffffffffffff1660001b620002df60201b60201c565b905092915050565b6200020082826200035960201b60201c565b620002db57600160008084815260200190815260200160002060000160008373ffffffffffffffffffffffffffffffffffffffff1673ffffffffffffffffffffffffffffffffffffffff16815260200190815260200160002060006101000a81548160ff021916908315150217905550620002806200015060201b60201c565b73ffffffffffffffffffffffffffffffffffffffff168173ffffffffffffffffffffffffffffffffffffffff16837f2f8788117e7eff1d82e926ec794901d17c78024a50270940304540a733656f0d60405160405180910390a45b5050565b6000620002f38383620003c360201b60201c565b6200034e57826000018290806001815401808255809150506001900390600052602060002001600090919091909150558260000180549050836001016000848152602001908152602001600020819055506001905062000353565b600090505b92915050565b600080600084815260200190815260200160002060000160008373ffffffffffffffffffffffffffffffffffffffff1673ffffffffffffffffffffffffffffffffffffffff16815260200190815260200160002060009054906101000a900460ff16905092915050565b600080836001016000848152602001908152602001600020541415905092915050565b828054620003f49062000646565b90600052602060002090601f01602090048101928262000418576000855562000464565b82601f106200043357805160ff191683800117855562000464565b8280016001018555821562000464579182015b828111156200046357825182559160200191906001019062000446565b5b50905062000473919062000477565b5090565b5b808211156200049257600081600090555060010162000478565b5090565b6000620004ad620004a784620005dd565b620005a9565b905082815260208101848484011115620004c657600080fd5b620004d384828562000610565b509392505050565b600082601f830112620004ed57600080fd5b8151620004ff84826020860162000496565b91505092915050565b6000806000606084860312156200051e57600080fd5b600084015167ffffffffffffffff8111156200053957600080fd5b6200054786828701620004db565b935050602084015167ffffffffffffffff8111156200056557600080fd5b6200057386828701620004db565b925050604084015167ffffffffffffffff8111156200059157600080fd5b6200059f86828701620004db565b9150509250925092565b6000604051905081810181811067ffffffffffffffff82111715620005d357620005d2620006ab565b5b8060405250919050565b600067ffffffffffffffff821115620005fb57620005fa620006ab565b5b601f19601f8301169050602081019050919050565b60005b838110156200063057808201518184015260208101905062000613565b8381111562000640576000848401525b50505050565b600060028204905060018216806200065f57607f821691505b602082108114156200067657620006756200067c565b5b50919050565b7f4e487b7100000000000000000000000000000000000000000000000000000000600052602260045260246000fd5b7f4e487b7100000000000000000000000000000000000000000000000000000000600052604160045260246000fd5b61457f80620006ea6000396000f3fe608060405234801561001057600080fd5b50600436106101f05760003560e01c80636a6278421161010f578063b88d4fde116100a2578063d539139311610071578063d5391393146105c9578063d547741f146105e7578063e63ab1e914610603578063e985e9c514610621576101f0565b8063b88d4fde1461052f578063c87b56dd1461054b578063ca15c8731461057b578063caa0f92a146105ab576101f0565b806391d14854116100de57806391d14854146104a757806395d89b41146104d7578063a217fddf146104f5578063a22cb46514610513576101f0565b80636a6278421461042157806370a082311461043d5780638456cb591461046d5780639010d07c14610477576101f0565b80632f745c591161018757806342966c681161015657806342966c68146103875780634f6ccce7146103a35780635c975abb146103d35780636352211e146103f1576101f0565b80632f745c591461031557806336568abe146103455780633f4ba83a1461036157806342842e0e1461036b576101f0565b806318160ddd116101c357806318160ddd1461028f57806323b872dd146102ad578063248a9ca3146102c95780632f2ff15d146102f9576101f0565b806301ffc9a7146101f557806306fdde0314610225578063081812fc14610243578063095ea7b314610273575b600080fd5b61020f600480360381019061020a9190613182565b610651565b60405161021c9190613d6b565b60405180910390f35b61022d610663565b60405161023a9190613da1565b60405180910390f35b61025d600480360381019061025891906131d4565b6106f5565b60405161026a9190613d04565b60405180910390f35b61028d600480360381019061028891906130a5565b61077a565b005b610297610892565b6040516102a49190614123565b60405180910390f35b6102c760048036038101906102c29190612f9f565b61089f565b005b6102e360048036038101906102de91906130e1565b6108ff565b6040516102f09190613d86565b60405180910390f35b610313600480360381019061030e919061310a565b61091e565b005b61032f600480360381019061032a91906130a5565b610952565b60405161033c9190614123565b60405180910390f35b61035f600480360381019061035a919061310a565b6109f7565b005b610369610a2b565b005b61038560048036038101906103809190612f9f565b610aa5565b005b6103a1600480360381019061039c91906131d4565b610ac5565b005b6103bd60048036038101906103b891906131d4565b610b21565b6040516103ca9190614123565b60405180910390f35b6103db610bb8565b6040516103e89190613d6b565b60405180910390f35b61040b600480360381019061040691906131d4565b610bcf565b6040516104189190613d04565b60405180910390f35b61043b60048036038101906104369190612f3a565b610c81565b005b61045760048036038101906104529190612f3a565b610d11565b6040516104649190614123565b60405180910390f35b610475610dc9565b005b610491600480360381019061048c9190613146565b610e43565b60405161049e9190613d04565b60405180910390f35b6104c160048036038101906104bc919061310a565b610e72565b6040516104ce9190613d6b565b60405180910390f35b6104df610edc565b6040516104ec9190613da1565b60405180910390f35b6104fd610f6e565b60405161050a9190613d86565b60405180910390f35b61052d60048036038101906105289190613069565b610f75565b005b61054960048036038101906105449190612fee565b6110f6565b005b610565600480360381019061056091906131d4565b611158565b6040516105729190613da1565b60405180910390f35b610595600480360381019061059091906130e1565b6111ff565b6040516105a29190614123565b60405180910390f35b6105b3611223565b6040516105c09190614123565b60405180910390f35b6105d1611234565b6040516105de9190613d86565b60405180910390f35b61060160048036038101906105fc919061310a565b611258565b005b61060b61128c565b6040516106189190613d86565b60405180910390f35b61063b60048036038101906106369190612f63565b6112b0565b6040516106489190613d6b565b60405180910390f35b600061065c82611382565b9050919050565b6060600280546106729061435d565b80601f016020809104026020016040519081016040528092919081815260200182805461069e9061435d565b80156106eb5780601f106106c0576101008083540402835291602001916106eb565b820191906000526020600020905b8154815290600101906020018083116106ce57829003601f168201915b5050505050905090565b6000610700826113fc565b61073f576040517f08c379a000000000000000000000000000000000000000000000000000000000815260040161073690613fe3565b60405180910390fd5b6006600083815260200190815260200160002060009054906101000a900473ffffffffffffffffffffffffffffffffffffffff169050919050565b600061078582610bcf565b90508073ffffffffffffffffffffffffffffffffffffffff168373ffffffffffffffffffffffffffffffffffffffff1614156107f6576040517f08c379a00000000000000000000000000000000000000000000000000000000081526004016107ed90614043565b60405180910390fd5b8073ffffffffffffffffffffffffffffffffffffffff16610815611468565b73ffffffffffffffffffffffffffffffffffffffff16148061084457506108438161083e611468565b6112b0565b5b610883576040517f08c379a000000000000000000000000000000000000000000000000000000000815260040161087a90613f63565b60405180910390fd5b61088d8383611470565b505050565b6000600a80549050905090565b6108b06108aa611468565b82611529565b6108ef576040517f08c379a00000000000000000000000000000000000000000000000000000000081526004016108e690614063565b60405180910390fd5b6108fa838383611607565b505050565b6000806000838152602001908152602001600020600101549050919050565b6109288282611863565b61094d816001600085815260200190815260200160002061135290919063ffffffff16565b505050565b600061095d83610d11565b821061099e576040517f08c379a000000000000000000000000000000000000000000000000000000000815260040161099590613e43565b60405180910390fd5b600860008473ffffffffffffffffffffffffffffffffffffffff1673ffffffffffffffffffffffffffffffffffffffff168152602001908152602001600020600083815260200190815260200160002054905092915050565b610a0182826118c9565b610a26816001600085815260200190815260200160002061194c90919063ffffffff16565b505050565b610a5c7f65d7a28e3265b37a6474929f336521b332c1681b933f6cb9f3376673440d862a610a57611468565b610e72565b610a9b576040517f08c379a0000000000000000000000000000000000000000000000000000000008152600401610a92906140e3565b60405180910390fd5b610aa361197c565b565b610ac0838383604051806020016040528060008152506110f6565b505050565b610ad6610ad0611468565b82611529565b610b15576040517f08c379a0000000000000000000000000000000000000000000000000000000008152600401610b0c906140c3565b60405180910390fd5b610b1e81611a1e565b50565b6000610b2b610892565b8210610b6c576040517f08c379a0000000000000000000000000000000000000000000000000000000008152600401610b6390614083565b60405180910390fd5b600a8281548110610ba6577f4e487b7100000000000000000000000000000000000000000000000000000000600052603260045260246000fd5b90600052602060002001549050919050565b6000600c60009054906101000a900460ff16905090565b6000806004600084815260200190815260200160002060009054906101000a900473ffffffffffffffffffffffffffffffffffffffff169050600073ffffffffffffffffffffffffffffffffffffffff168173ffffffffffffffffffffffffffffffffffffffff161415610c78576040517f08c379a0000000000000000000000000000000000000000000000000000000008152600401610c6f90613fa3565b60405180910390fd5b80915050919050565b610cb27f9f2df0fed2c77648de5860a4cc508cd0818c85b8b8a1ab4ceeef8d981c8956a6610cad611468565b610e72565b610cf1576040517f08c379a0000000000000000000000000000000000000000000000000000000008152600401610ce8906140a3565b60405180910390fd5b610d0481610cff600d611b2f565b611b3d565b610d0e600d611d0b565b50565b60008073ffffffffffffffffffffffffffffffffffffffff168273ffffffffffffffffffffffffffffffffffffffff161415610d82576040517f08c379a0000000000000000000000000000000000000000000000000000000008152600401610d7990613f83565b60405180910390fd5b600560008373ffffffffffffffffffffffffffffffffffffffff1673ffffffffffffffffffffffffffffffffffffffff168152602001908152602001600020549050919050565b610dfa7f65d7a28e3265b37a6474929f336521b332c1681b933f6cb9f3376673440d862a610df5611468565b610e72565b610e39576040517f08c379a0000000000000000000000000000000000000000000000000000000008152600401610e3090613ea3565b60405180910390fd5b610e41611d21565b565b6000610e6a8260016000868152602001908152602001600020611dc490919063ffffffff16565b905092915050565b600080600084815260200190815260200160002060000160008373ffffffffffffffffffffffffffffffffffffffff1673ffffffffffffffffffffffffffffffffffffffff16815260200190815260200160002060009054906101000a900460ff16905092915050565b606060038054610eeb9061435d565b80601f0160208091040260200160405190810160405280929190818152602001828054610f179061435d565b8015610f645780601f10610f3957610100808354040283529160200191610f64565b820191906000526020600020905b815481529060010190602001808311610f4757829003601f168201915b5050505050905090565b6000801b81565b610f7d611468565b73ffffffffffffffffffffffffffffffffffffffff168273ffffffffffffffffffffffffffffffffffffffff161415610feb576040517f08c379a0000000000000000000000000000000000000000000000000000000008152600401610fe290613ee3565b60405180910390fd5b8060076000610ff8611468565b73ffffffffffffffffffffffffffffffffffffffff1673ffffffffffffffffffffffffffffffffffffffff16815260200190815260200160002060008473ffffffffffffffffffffffffffffffffffffffff1673ffffffffffffffffffffffffffffffffffffffff16815260200190815260200160002060006101000a81548160ff0219169083151502179055508173ffffffffffffffffffffffffffffffffffffffff166110a5611468565b73ffffffffffffffffffffffffffffffffffffffff167f17307eab39ab6107e8899845ad3d59bd9653f200f220920489ca2b5937696c31836040516110ea9190613d6b565b60405180910390a35050565b611107611101611468565b83611529565b611146576040517f08c379a000000000000000000000000000000000000000000000000000000000815260040161113d90614063565b60405180910390fd5b61115284848484611dde565b50505050565b6060611163826113fc565b6111a2576040517f08c379a000000000000000000000000000000000000000000000000000000000815260040161119990614023565b60405180910390fd5b60006111ac611e3a565b905060008151116111cc57604051806020016040528060008152506111f7565b806111d684611ecc565b6040516020016111e7929190613ce0565b6040516020818303038152906040525b915050919050565b600061121c60016000848152602001908152602001600020612079565b9050919050565b600061122f600d611b2f565b905090565b7f9f2df0fed2c77648de5860a4cc508cd0818c85b8b8a1ab4ceeef8d981c8956a681565b611262828261208e565b611287816001600085815260200190815260200160002061194c90919063ffffffff16565b505050565b7f65d7a28e3265b37a6474929f336521b332c1681b933f6cb9f3376673440d862a81565b6000600760008473ffffffffffffffffffffffffffffffffffffffff1673ffffffffffffffffffffffffffffffffffffffff16815260200190815260200160002060008373ffffffffffffffffffffffffffffffffffffffff1673ffffffffffffffffffffffffffffffffffffffff16815260200190815260200160002060009054906101000a900460ff16905092915050565b61134e82826120f4565b5050565b600061137a836000018373ffffffffffffffffffffffffffffffffffffffff1660001b6121d4565b905092915050565b60007f780e9d63000000000000000000000000000000000000000000000000000000007bffffffffffffffffffffffffffffffffffffffffffffffffffffffff1916827bffffffffffffffffffffffffffffffffffffffffffffffffffffffff191614806113f557506113f482612244565b5b9050919050565b60008073ffffffffffffffffffffffffffffffffffffffff166004600084815260200190815260200160002060009054906101000a900473ffffffffffffffffffffffffffffffffffffffff1673ffffffffffffffffffffffffffffffffffffffff1614159050919050565b600033905090565b816006600083815260200190815260200160002060006101000a81548173ffffffffffffffffffffffffffffffffffffffff021916908373ffffffffffffffffffffffffffffffffffffffff160217905550808273ffffffffffffffffffffffffffffffffffffffff166114e383610bcf565b73ffffffffffffffffffffffffffffffffffffffff167f8c5be1e5ebec7d5bd14f71427d1e84f3dd0314c0f7b2291e5b200ac8c7c3b92560405160405180910390a45050565b6000611534826113fc565b611573576040517f08c379a000000000000000000000000000000000000000000000000000000000815260040161156a90613f03565b60405180910390fd5b600061157e83610bcf565b90508073ffffffffffffffffffffffffffffffffffffffff168473ffffffffffffffffffffffffffffffffffffffff1614806115ed57508373ffffffffffffffffffffffffffffffffffffffff166115d5846106f5565b73ffffffffffffffffffffffffffffffffffffffff16145b806115fe57506115fd81856112b0565b5b91505092915050565b8273ffffffffffffffffffffffffffffffffffffffff1661162782610bcf565b73ffffffffffffffffffffffffffffffffffffffff161461167d576040517f08c379a000000000000000000000000000000000000000000000000000000000815260040161167490614003565b60405180910390fd5b600073ffffffffffffffffffffffffffffffffffffffff168273ffffffffffffffffffffffffffffffffffffffff1614156116ed576040517f08c379a00000000000000000000000000000000000000000000000000000000081526004016116e490613ec3565b60405180910390fd5b6116f8838383612326565b611703600082611470565b6001600560008573ffffffffffffffffffffffffffffffffffffffff1673ffffffffffffffffffffffffffffffffffffffff16815260200190815260200160002060008282546117539190614269565b925050819055506001600560008473ffffffffffffffffffffffffffffffffffffffff1673ffffffffffffffffffffffffffffffffffffffff16815260200190815260200160002060008282546117aa91906141e2565b92505081905550816004600083815260200190815260200160002060006101000a81548173ffffffffffffffffffffffffffffffffffffffff021916908373ffffffffffffffffffffffffffffffffffffffff160217905550808273ffffffffffffffffffffffffffffffffffffffff168473ffffffffffffffffffffffffffffffffffffffff167fddf252ad1be2c89b69c2b068fc378daa952ba7f163c4a11628f55a4df523b3ef60405160405180910390a4505050565b61187c61186f836108ff565b611877611468565b610e72565b6118bb576040517f08c379a00000000000000000000000000000000000000000000000000000000081526004016118b290613e03565b60405180910390fd5b6118c582826120f4565b5050565b6118d1611468565b73ffffffffffffffffffffffffffffffffffffffff168173ffffffffffffffffffffffffffffffffffffffff161461193e576040517f08c379a000000000000000000000000000000000000000000000000000000000815260040161193590614103565b60405180910390fd5b6119488282612336565b5050565b6000611974836000018373ffffffffffffffffffffffffffffffffffffffff1660001b612417565b905092915050565b611984610bb8565b6119c3576040517f08c379a00000000000000000000000000000000000000000000000000000000081526004016119ba90613e23565b60405180910390fd5b6000600c60006101000a81548160ff0219169083151502179055507f5db9ee0a495bf2e6ff9c91a7834c1ba4fdd244a5e8aa4e537bd38aeae4b073aa611a07611468565b604051611a149190613d04565b60405180910390a1565b6000611a2982610bcf565b9050611a3781600084612326565b611a42600083611470565b6001600560008373ffffffffffffffffffffffffffffffffffffffff1673ffffffffffffffffffffffffffffffffffffffff1681526020019081526020016000206000828254611a929190614269565b925050819055506004600083815260200190815260200160002060006101000a81549073ffffffffffffffffffffffffffffffffffffffff021916905581600073ffffffffffffffffffffffffffffffffffffffff168273ffffffffffffffffffffffffffffffffffffffff167fddf252ad1be2c89b69c2b068fc378daa952ba7f163c4a11628f55a4df523b3ef60405160405180910390a45050565b600081600001549050919050565b600073ffffffffffffffffffffffffffffffffffffffff168273ffffffffffffffffffffffffffffffffffffffff161415611bad576040517f08c379a0000000000000000000000000000000000000000000000000000000008152600401611ba490613fc3565b60405180910390fd5b611bb6816113fc565b15611bf6576040517f08c379a0000000000000000000000000000000000000000000000000000000008152600401611bed90613e83565b60405180910390fd5b611c0260008383612326565b6001600560008473ffffffffffffffffffffffffffffffffffffffff1673ffffffffffffffffffffffffffffffffffffffff1681526020019081526020016000206000828254611c5291906141e2565b92505081905550816004600083815260200190815260200160002060006101000a81548173ffffffffffffffffffffffffffffffffffffffff021916908373ffffffffffffffffffffffffffffffffffffffff160217905550808273ffffffffffffffffffffffffffffffffffffffff16600073ffffffffffffffffffffffffffffffffffffffff167fddf252ad1be2c89b69c2b068fc378daa952ba7f163c4a11628f55a4df523b3ef60405160405180910390a45050565b6001816000016000828254019250508190555050565b611d29610bb8565b15611d69576040517f08c379a0000000000000000000000000000000000000000000000000000000008152600401611d6090613f43565b60405180910390fd5b6001600c60006101000a81548160ff0219169083151502179055507f62e78cea01bee320cd4e420270b5ea74000d11b0c9f74754ebdbfc544b05a258611dad611468565b604051611dba9190613d04565b60405180910390a1565b6000611dd38360000183612595565b60001c905092915050565b611de9848484611607565b611df58484848461262f565b611e34576040517f08c379a0000000000000000000000000000000000000000000000000000000008152600401611e2b90613e63565b60405180910390fd5b50505050565b6060600e8054611e499061435d565b80601f0160208091040260200160405190810160405280929190818152602001828054611e759061435d565b8015611ec25780601f10611e9757610100808354040283529160200191611ec2565b820191906000526020600020905b815481529060010190602001808311611ea557829003601f168201915b5050505050905090565b60606000821415611f14576040518060400160405280600181526020017f30000000000000000000000000000000000000000000000000000000000000008152509050612074565b600082905060005b60008214611f46578080611f2f9061438f565b915050600a82611f3f9190614238565b9150611f1c565b60008167ffffffffffffffff811115611f88577f4e487b7100000000000000000000000000000000000000000000000000000000600052604160045260246000fd5b6040519080825280601f01601f191660200182016040528015611fba5781602001600182028036833780820191505090505b5090505b6000851461206d57600182611fd39190614269565b9150600a85611fe291906143d8565b6030611fee91906141e2565b60f81b81838151811061202a577f4e487b7100000000000000000000000000000000000000000000000000000000600052603260045260246000fd5b60200101907effffffffffffffffffffffffffffffffffffffffffffffffffffffffffffff1916908160001a905350600a856120669190614238565b9450611fbe565b8093505050505b919050565b6000612087826000016127c6565b9050919050565b6120a761209a836108ff565b6120a2611468565b610e72565b6120e6576040517f08c379a00000000000000000000000000000000000000000000000000000000081526004016120dd90613f23565b60405180910390fd5b6120f08282612336565b5050565b6120fe8282610e72565b6121d057600160008084815260200190815260200160002060000160008373ffffffffffffffffffffffffffffffffffffffff1673ffffffffffffffffffffffffffffffffffffffff16815260200190815260200160002060006101000a81548160ff021916908315150217905550612175611468565b73ffffffffffffffffffffffffffffffffffffffff168173ffffffffffffffffffffffffffffffffffffffff16837f2f8788117e7eff1d82e926ec794901d17c78024a50270940304540a733656f0d60405160405180910390a45b5050565b60006121e083836127d7565b61223957826000018290806001815401808255809150506001900390600052602060002001600090919091909150558260000180549050836001016000848152602001908152602001600020819055506001905061223e565b600090505b92915050565b60007f80ac58cd000000000000000000000000000000000000000000000000000000007bffffffffffffffffffffffffffffffffffffffffffffffffffffffff1916827bffffffffffffffffffffffffffffffffffffffffffffffffffffffff1916148061230f57507f5b5e139f000000000000000000000000000000000000000000000000000000007bffffffffffffffffffffffffffffffffffffffffffffffffffffffff1916827bffffffffffffffffffffffffffffffffffffffffffffffffffffffff1916145b8061231f575061231e826127fa565b5b9050919050565b612331838383612874565b505050565b6123408282610e72565b1561241357600080600084815260200190815260200160002060000160008373ffffffffffffffffffffffffffffffffffffffff1673ffffffffffffffffffffffffffffffffffffffff16815260200190815260200160002060006101000a81548160ff0219169083151502179055506123b8611468565b73ffffffffffffffffffffffffffffffffffffffff168173ffffffffffffffffffffffffffffffffffffffff16837ff6391f5c32d9c69d2a47ea670b442974b53935d1edc7fd64eb21e047a839171b60405160405180910390a45b5050565b600080836001016000848152602001908152602001600020549050600081146125895760006001826124499190614269565b90506000600186600001805490506124619190614269565b905060008660000182815481106124a1577f4e487b7100000000000000000000000000000000000000000000000000000000600052603260045260246000fd5b90600052602060002001549050808760000184815481106124eb577f4e487b7100000000000000000000000000000000000000000000000000000000600052603260045260246000fd5b906000526020600020018190555083876001016000838152602001908152602001600020819055508660000180548061254d577f4e487b7100000000000000000000000000000000000000000000000000000000600052603160045260246000fd5b6001900381819060005260206000200160009055905586600101600087815260200190815260200160002060009055600194505050505061258f565b60009150505b92915050565b6000818360000180549050116125e0576040517f08c379a00000000000000000000000000000000000000000000000000000000081526004016125d790613dc3565b60405180910390fd5b82600001828154811061261c577f4e487b7100000000000000000000000000000000000000000000000000000000600052603260045260246000fd5b9060005260206000200154905092915050565b60006126508473ffffffffffffffffffffffffffffffffffffffff166128cc565b156127b9578373ffffffffffffffffffffffffffffffffffffffff1663150b7a02612679611468565b8786866040518563ffffffff1660e01b815260040161269b9493929190613d1f565b602060405180830381600087803b1580156126b557600080fd5b505af19250505080156126e657506040513d601f19601f820116820180604052508101906126e391906131ab565b60015b612769573d8060008114612716576040519150601f19603f3d011682016040523d82523d6000602084013e61271b565b606091505b50600081511415612761576040517f08c379a000000000000000000000000000000000000000000000000000000000815260040161275890613e63565b60405180910390fd5b805181602001fd5b63150b7a0260e01b7bffffffffffffffffffffffffffffffffffffffffffffffffffffffff1916817bffffffffffffffffffffffffffffffffffffffffffffffffffffffff1916149150506127be565b600190505b949350505050565b600081600001805490509050919050565b600080836001016000848152602001908152602001600020541415905092915050565b60007f5a05180f000000000000000000000000000000000000000000000000000000007bffffffffffffffffffffffffffffffffffffffffffffffffffffffff1916827bffffffffffffffffffffffffffffffffffffffffffffffffffffffff1916148061286d575061286c826128df565b5b9050919050565b61287f838383612959565b612887610bb8565b156128c7576040517f08c379a00000000000000000000000000000000000000000000000000000000081526004016128be90613de3565b60405180910390fd5b505050565b600080823b905060008111915050919050565b60007f7965db0b000000000000000000000000000000000000000000000000000000007bffffffffffffffffffffffffffffffffffffffffffffffffffffffff1916827bffffffffffffffffffffffffffffffffffffffffffffffffffffffff19161480612952575061295182612a6d565b5b9050919050565b612964838383612ad7565b600073ffffffffffffffffffffffffffffffffffffffff168373ffffffffffffffffffffffffffffffffffffffff1614156129a7576129a281612adc565b6129e6565b8173ffffffffffffffffffffffffffffffffffffffff168373ffffffffffffffffffffffffffffffffffffffff16146129e5576129e48382612b25565b5b5b600073ffffffffffffffffffffffffffffffffffffffff168273ffffffffffffffffffffffffffffffffffffffff161415612a2957612a2481612c92565b612a68565b8273ffffffffffffffffffffffffffffffffffffffff168273ffffffffffffffffffffffffffffffffffffffff1614612a6757612a668282612dd5565b5b5b505050565b60007f01ffc9a7000000000000000000000000000000000000000000000000000000007bffffffffffffffffffffffffffffffffffffffffffffffffffffffff1916827bffffffffffffffffffffffffffffffffffffffffffffffffffffffff1916149050919050565b505050565b600a80549050600b600083815260200190815260200160002081905550600a81908060018154018082558091505060019003906000526020600020016000909190919091505550565b60006001612b3284610d11565b612b3c9190614269565b9050600060096000848152602001908152602001600020549050818114612c21576000600860008673ffffffffffffffffffffffffffffffffffffffff1673ffffffffffffffffffffffffffffffffffffffff168152602001908152602001600020600084815260200190815260200160002054905080600860008773ffffffffffffffffffffffffffffffffffffffff1673ffffffffffffffffffffffffffffffffffffffff168152602001908152602001600020600084815260200190815260200160002081905550816009600083815260200190815260200160002081905550505b6009600084815260200190815260200160002060009055600860008573ffffffffffffffffffffffffffffffffffffffff1673ffffffffffffffffffffffffffffffffffffffff16815260200190815260200160002060008381526020019081526020016000206000905550505050565b60006001600a80549050612ca69190614269565b90506000600b60008481526020019081526020016000205490506000600a8381548110612cfc577f4e487b7100000000000000000000000000000000000000000000000000000000600052603260045260246000fd5b9060005260206000200154905080600a8381548110612d44577f4e487b7100000000000000000000000000000000000000000000000000000000600052603260045260246000fd5b906000526020600020018190555081600b600083815260200190815260200160002081905550600b600085815260200190815260200160002060009055600a805480612db9577f4e487b7100000000000000000000000000000000000000000000000000000000600052603160045260246000fd5b6001900381819060005260206000200160009055905550505050565b6000612de083610d11565b905081600860008573ffffffffffffffffffffffffffffffffffffffff1673ffffffffffffffffffffffffffffffffffffffff168152602001908152602001600020600083815260200190815260200160002081905550806009600084815260200190815260200160002081905550505050565b6000612e67612e628461416f565b61413e565b905082815260208101848484011115612e7f57600080fd5b612e8a84828561431b565b509392505050565b600081359050612ea1816144d6565b92915050565b600081359050612eb6816144ed565b92915050565b600081359050612ecb81614504565b92915050565b600081359050612ee08161451b565b92915050565b600081519050612ef58161451b565b92915050565b600082601f830112612f0c57600080fd5b8135612f1c848260208601612e54565b91505092915050565b600081359050612f3481614532565b92915050565b600060208284031215612f4c57600080fd5b6000612f5a84828501612e92565b91505092915050565b60008060408385031215612f7657600080fd5b6000612f8485828601612e92565b9250506020612f9585828601612e92565b9150509250929050565b600080600060608486031215612fb457600080fd5b6000612fc286828701612e92565b9350506020612fd386828701612e92565b9250506040612fe486828701612f25565b9150509250925092565b6000806000806080858703121561300457600080fd5b600061301287828801612e92565b945050602061302387828801612e92565b935050604061303487828801612f25565b925050606085013567ffffffffffffffff81111561305157600080fd5b61305d87828801612efb565b91505092959194509250565b6000806040838503121561307c57600080fd5b600061308a85828601612e92565b925050602061309b85828601612ea7565b9150509250929050565b600080604083850312156130b857600080fd5b60006130c685828601612e92565b92505060206130d785828601612f25565b9150509250929050565b6000602082840312156130f357600080fd5b600061310184828501612ebc565b91505092915050565b6000806040838503121561311d57600080fd5b600061312b85828601612ebc565b925050602061313c85828601612e92565b9150509250929050565b6000806040838503121561315957600080fd5b600061316785828601612ebc565b925050602061317885828601612f25565b9150509250929050565b60006020828403121561319457600080fd5b60006131a284828501612ed1565b91505092915050565b6000602082840312156131bd57600080fd5b60006131cb84828501612ee6565b91505092915050565b6000602082840312156131e657600080fd5b60006131f484828501612f25565b91505092915050565b6132068161429d565b82525050565b613215816142af565b82525050565b613224816142bb565b82525050565b60006132358261419f565b61323f81856141b5565b935061324f81856020860161432a565b613258816144c5565b840191505092915050565b600061326e826141aa565b61327881856141c6565b935061328881856020860161432a565b613291816144c5565b840191505092915050565b60006132a7826141aa565b6132b181856141d7565b93506132c181856020860161432a565b80840191505092915050565b60006132da6022836141c6565b91507f456e756d657261626c655365743a20696e646578206f7574206f6620626f756e60008301527f64730000000000000000000000000000000000000000000000000000000000006020830152604082019050919050565b6000613340602b836141c6565b91507f4552433732315061757361626c653a20746f6b656e207472616e73666572207760008301527f68696c65207061757365640000000000000000000000000000000000000000006020830152604082019050919050565b60006133a6602f836141c6565b91507f416363657373436f6e74726f6c3a2073656e646572206d75737420626520616e60008301527f2061646d696e20746f206772616e7400000000000000000000000000000000006020830152604082019050919050565b600061340c6014836141c6565b91507f5061757361626c653a206e6f74207061757365640000000000000000000000006000830152602082019050919050565b600061344c602b836141c6565b91507f455243373231456e756d657261626c653a206f776e657220696e646578206f7560008301527f74206f6620626f756e64730000000000000000000000000000000000000000006020830152604082019050919050565b60006134b26032836141c6565b91507f4552433732313a207472616e7366657220746f206e6f6e20455243373231526560008301527f63656976657220696d706c656d656e74657200000000000000000000000000006020830152604082019050919050565b6000613518601c836141c6565b91507f4552433732313a20746f6b656e20616c7265616479206d696e746564000000006000830152602082019050919050565b6000613558603e836141c6565b91507f4552433732315072657365744d696e7465725061757365724175746f49643a2060008301527f6d75737420686176652070617573657220726f6c6520746f20706175736500006020830152604082019050919050565b60006135be6024836141c6565b91507f4552433732313a207472616e7366657220746f20746865207a65726f2061646460008301527f72657373000000000000000000000000000000000000000000000000000000006020830152604082019050919050565b60006136246019836141c6565b91507f4552433732313a20617070726f766520746f2063616c6c6572000000000000006000830152602082019050919050565b6000613664602c836141c6565b91507f4552433732313a206f70657261746f7220717565727920666f72206e6f6e657860008301527f697374656e7420746f6b656e00000000000000000000000000000000000000006020830152604082019050919050565b60006136ca6030836141c6565b91507f416363657373436f6e74726f6c3a2073656e646572206d75737420626520616e60008301527f2061646d696e20746f207265766f6b65000000000000000000000000000000006020830152604082019050919050565b60006137306010836141c6565b91507f5061757361626c653a20706175736564000000000000000000000000000000006000830152602082019050919050565b60006137706038836141c6565b91507f4552433732313a20617070726f76652063616c6c6572206973206e6f74206f7760008301527f6e6572206e6f7220617070726f76656420666f7220616c6c00000000000000006020830152604082019050919050565b60006137d6602a836141c6565b91507f4552433732313a2062616c616e636520717565727920666f7220746865207a6560008301527f726f2061646472657373000000000000000000000000000000000000000000006020830152604082019050919050565b600061383c6029836141c6565b91507f4552433732313a206f776e657220717565727920666f72206e6f6e657869737460008301527f656e7420746f6b656e00000000000000000000000000000000000000000000006020830152604082019050919050565b60006138a26020836141c6565b91507f4552433732313a206d696e7420746f20746865207a65726f20616464726573736000830152602082019050919050565b60006138e2602c836141c6565b91507f4552433732313a20617070726f76656420717565727920666f72206e6f6e657860008301527f697374656e7420746f6b656e00000000000000000000000000000000000000006020830152604082019050919050565b60006139486029836141c6565b91507f4552433732313a207472616e73666572206f6620746f6b656e2074686174206960008301527f73206e6f74206f776e00000000000000000000000000000000000000000000006020830152604082019050919050565b60006139ae602f836141c6565b91507f4552433732314d657461646174613a2055524920717565727920666f72206e6f60008301527f6e6578697374656e7420746f6b656e00000000000000000000000000000000006020830152604082019050919050565b6000613a146021836141c6565b91507f4552433732313a20617070726f76616c20746f2063757272656e74206f776e6560008301527f72000000000000000000000000000000000000000000000000000000000000006020830152604082019050919050565b6000613a7a6031836141c6565b91507f4552433732313a207472616e736665722063616c6c6572206973206e6f74206f60008301527f776e6572206e6f7220617070726f7665640000000000000000000000000000006020830152604082019050919050565b6000613ae0602c836141c6565b91507f455243373231456e756d657261626c653a20676c6f62616c20696e646578206f60008301527f7574206f6620626f756e647300000000000000000000000000000000000000006020830152604082019050919050565b6000613b46603d836141c6565b91507f4552433732315072657365744d696e7465725061757365724175746f49643a2060008301527f6d7573742068617665206d696e74657220726f6c6520746f206d696e740000006020830152604082019050919050565b6000613bac6030836141c6565b91507f4552433732314275726e61626c653a2063616c6c6572206973206e6f74206f7760008301527f6e6572206e6f7220617070726f766564000000000000000000000000000000006020830152604082019050919050565b6000613c126040836141c6565b91507f4552433732315072657365744d696e7465725061757365724175746f49643a2060008301527f6d75737420686176652070617573657220726f6c6520746f20756e70617573656020830152604082019050919050565b6000613c78602f836141c6565b91507f416363657373436f6e74726f6c3a2063616e206f6e6c792072656e6f756e636560008301527f20726f6c657320666f722073656c6600000000000000000000000000000000006020830152604082019050919050565b613cda81614311565b82525050565b6000613cec828561329c565b9150613cf8828461329c565b91508190509392505050565b6000602082019050613d1960008301846131fd565b92915050565b6000608082019050613d3460008301876131fd565b613d4160208301866131fd565b613d4e6040830185613cd1565b8181036060830152613d60818461322a565b905095945050505050565b6000602082019050613d80600083018461320c565b92915050565b6000602082019050613d9b600083018461321b565b92915050565b60006020820190508181036000830152613dbb8184613263565b905092915050565b60006020820190508181036000830152613ddc816132cd565b9050919050565b60006020820190508181036000830152613dfc81613333565b9050919050565b60006020820190508181036000830152613e1c81613399565b9050919050565b60006020820190508181036000830152613e3c816133ff565b9050919050565b60006020820190508181036000830152613e5c8161343f565b9050919050565b60006020820190508181036000830152613e7c816134a5565b9050919050565b60006020820190508181036000830152613e9c8161350b565b9050919050565b60006020820190508181036000830152613ebc8161354b565b9050919050565b60006020820190508181036000830152613edc816135b1565b9050919050565b60006020820190508181036000830152613efc81613617565b9050919050565b60006020820190508181036000830152613f1c81613657565b9050919050565b60006020820190508181036000830152613f3c816136bd565b9050919050565b60006020820190508181036000830152613f5c81613723565b9050919050565b60006020820190508181036000830152613f7c81613763565b9050919050565b60006020820190508181036000830152613f9c816137c9565b9050919050565b60006020820190508181036000830152613fbc8161382f565b9050919050565b60006020820190508181036000830152613fdc81613895565b9050919050565b60006020820190508181036000830152613ffc816138d5565b9050919050565b6000602082019050818103600083015261401c8161393b565b9050919050565b6000602082019050818103600083015261403c816139a1565b9050919050565b6000602082019050818103600083015261405c81613a07565b9050919050565b6000602082019050818103600083015261407c81613a6d565b9050919050565b6000602082019050818103600083015261409c81613ad3565b9050919050565b600060208201905081810360008301526140bc81613b39565b9050919050565b600060208201905081810360008301526140dc81613b9f565b9050919050565b600060208201905081810360008301526140fc81613c05565b9050919050565b6000602082019050818103600083015261411c81613c6b565b9050919050565b60006020820190506141386000830184613cd1565b92915050565b6000604051905081810181811067ffffffffffffffff8211171561416557614164614496565b5b8060405250919050565b600067ffffffffffffffff82111561418a57614189614496565b5b601f19601f8301169050602081019050919050565b600081519050919050565b600081519050919050565b600082825260208201905092915050565b600082825260208201905092915050565b600081905092915050565b60006141ed82614311565b91506141f883614311565b9250827fffffffffffffffffffffffffffffffffffffffffffffffffffffffffffffffff0382111561422d5761422c614409565b5b828201905092915050565b600061424382614311565b915061424e83614311565b92508261425e5761425d614438565b5b828204905092915050565b600061427482614311565b915061427f83614311565b92508282101561429257614291614409565b5b828203905092915050565b60006142a8826142f1565b9050919050565b60008115159050919050565b6000819050919050565b60007fffffffff0000000000000000000000000000000000000000000000000000000082169050919050565b600073ffffffffffffffffffffffffffffffffffffffff82169050919050565b6000819050919050565b82818337600083830152505050565b60005b8381101561434857808201518184015260208101905061432d565b83811115614357576000848401525b50505050565b6000600282049050600182168061437557607f821691505b6020821081141561438957614388614467565b5b50919050565b600061439a82614311565b91507fffffffffffffffffffffffffffffffffffffffffffffffffffffffffffffffff8214156143cd576143cc614409565b5b600182019050919050565b60006143e382614311565b91506143ee83614311565b9250826143fe576143fd614438565b5b828206905092915050565b7f4e487b7100000000000000000000000000000000000000000000000000000000600052601160045260246000fd5b7f4e487b7100000000000000000000000000000000000000000000000000000000600052601260045260246000fd5b7f4e487b7100000000000000000000000000000000000000000000000000000000600052602260045260246000fd5b7f4e487b7100000000000000000000000000000000000000000000000000000000600052604160045260246000fd5b6000601f19601f8301169050919050565b6144df8161429d565b81146144ea57600080fd5b50565b6144f6816142af565b811461450157600080fd5b50565b61450d816142bb565b811461451857600080fd5b50565b614524816142c5565b811461452f57600080fd5b50565b61453b81614311565b811461454657600080fd5b5056fea2646970667358221220480ef3e0867f672c51af43b2288132764320d3b28bc43c8f64d26ae5e869e96b64736f6c63430008000033",
  "immutableReferences": {},
  "source": "// SPDX-License-Identifier: MIT\r\n\r\npragma solidity ^0.8.0;\r\n\r\nimport \"../ERC721.sol\";\r\nimport \"../extensions/ERC721Enumerable.sol\";\r\nimport \"../extensions/ERC721Burnable.sol\";\r\nimport \"../extensions/ERC721Pausable.sol\";\r\nimport \"../../../access/AccessControlEnumerable.sol\";\r\nimport \"../../../utils/Context.sol\";\r\nimport \"../../../utils/Counters.sol\";\r\n\r\n/**\r\n * @dev {ERC721} token, including:\r\n *\r\n *  - ability for holders to burn (destroy) their tokens\r\n *  - a minter role that allows for token minting (creation)\r\n *  - a pauser role that allows to stop all token transfers\r\n *  - token ID and URI autogeneration\r\n *\r\n * This contract uses {AccessControl} to lock permissioned functions using the\r\n * different roles - head to its documentation for details.\r\n *\r\n * The account that deploys the contract will be granted the minter and pauser\r\n * roles, as well as the default admin role, which will let it grant both minter\r\n * and pauser roles to other accounts.\r\n */\r\ncontract GeoRewards is Context, AccessControlEnumerable, ERC721Enumerable, ERC721Burnable, ERC721Pausable {\r\n    using Counters for Counters.Counter;\r\n\r\n    bytes32 public constant MINTER_ROLE = keccak256(\"MINTER_ROLE\");\r\n    bytes32 public constant PAUSER_ROLE = keccak256(\"PAUSER_ROLE\");\r\n\r\n    Counters.Counter private _tokenIdTracker;\r\n\r\n    string private _baseTokenURI;\r\n\r\n    /**\r\n     * @dev Grants `DEFAULT_ADMIN_ROLE`, `MINTER_ROLE` and `PAUSER_ROLE` to the\r\n     * account that deploys the contract.\r\n     *\r\n     * Token URIs will be autogenerated based on `baseURI` and their token IDs.\r\n     * See {ERC721-tokenURI}.\r\n     */\r\n    constructor(string memory name, string memory symbol, string memory baseTokenURI) ERC721(name, symbol) {\r\n        _baseTokenURI = baseTokenURI;\r\n\r\n        _setupRole(DEFAULT_ADMIN_ROLE, _msgSender());\r\n\r\n        _setupRole(MINTER_ROLE, _msgSender());\r\n        _setupRole(PAUSER_ROLE, _msgSender());\r\n    }\r\n\r\n    function _baseURI() internal view virtual override returns (string memory) {\r\n        return _baseTokenURI;\r\n    }\r\n\r\n    /**\r\n     * @dev Creates a new token for `to`. Its token ID will be automatically\r\n     * assigned (and available on the emitted {IERC721-Transfer} event), and the token\r\n     * URI autogenerated based on the base URI passed at construction.\r\n     *\r\n     * See {ERC721-_mint}.\r\n     *\r\n     * Requirements:\r\n     *\r\n     * - the caller must have the `MINTER_ROLE`.\r\n     */\r\n    function mint(address to) public virtual {\r\n        require(hasRole(MINTER_ROLE, _msgSender()), \"ERC721PresetMinterPauserAutoId: must have minter role to mint\");\r\n\r\n        // We cannot just use balanceOf to create the new tokenId because tokens\r\n        // can be burned (destroyed), so we need a separate counter.\r\n        _mint(to, _tokenIdTracker.current());\r\n        _tokenIdTracker.increment();\r\n    }\r\n\r\n    /**\r\n     * @dev Returns the next token id\r\n     *\r\n     * See {ERC721-_mint}.\r\n     */\r\n\r\n    function getNextTokenId() public view returns(uint256 ) {\r\n        return _tokenIdTracker.current();\r\n    }\r\n\r\n    /**\r\n     * @dev Pauses all token transfers.\r\n     *\r\n     * See {ERC721Pausable} and {Pausable-_pause}.\r\n     *\r\n     * Requirements:\r\n     *\r\n     * - the caller must have the `PAUSER_ROLE`.\r\n     */\r\n    function pause() public virtual {\r\n        require(hasRole(PAUSER_ROLE, _msgSender()), \"ERC721PresetMinterPauserAutoId: must have pauser role to pause\");\r\n        _pause();\r\n    }\r\n\r\n    /**\r\n     * @dev Unpauses all token transfers.\r\n     *\r\n     * See {ERC721Pausable} and {Pausable-_unpause}.\r\n     *\r\n     * Requirements:\r\n     *\r\n     * - the caller must have the `PAUSER_ROLE`.\r\n     */\r\n    function unpause() public virtual {\r\n        require(hasRole(PAUSER_ROLE, _msgSender()), \"ERC721PresetMinterPauserAutoId: must have pauser role to unpause\");\r\n        _unpause();\r\n    }\r\n\r\n    function _beforeTokenTransfer(address from, address to, uint256 tokenId) internal virtual override(ERC721, ERC721Enumerable, ERC721Pausable) {\r\n        super._beforeTokenTransfer(from, to, tokenId);\r\n    }\r\n\r\n    /**\r\n     * @dev See {IERC165-supportsInterface}.\r\n     */\r\n    function supportsInterface(bytes4 interfaceId) public view virtual override(AccessControlEnumerable, ERC721, ERC721Enumerable) returns (bool) {\r\n        return super.supportsInterface(interfaceId);\r\n    }\r\n}\r\n",
  "sourcePath": "C:/Users/RogerGangaSundararaj/Documents/GitHub/openzeppelin-contracts/contracts/token/ERC721/presets/GeoRewards.sol",
  "compiler": {
    "name": "solc",
    "version": "0.8.0+commit.c7dfd78e.Emscripten.clang"
  },
  "schemaVersion": "3.2.3",
  "updatedAt": "2021-03-26T11:30:52.950Z",
  "devdoc": {
    "details": "{ERC721} token, including:  - ability for holders to burn (destroy) their tokens  - a minter role that allows for token minting (creation)  - a pauser role that allows to stop all token transfers  - token ID and URI autogeneration This contract uses {AccessControl} to lock permissioned functions using the different roles - head to its documentation for details. The account that deploys the contract will be granted the minter and pauser roles, as well as the default admin role, which will let it grant both minter and pauser roles to other accounts.",
    "kind": "dev",
    "methods": {
      "approve(address,uint256)": {
        "details": "See {IERC721-approve}."
      },
      "balanceOf(address)": {
        "details": "See {IERC721-balanceOf}."
      },
      "burn(uint256)": {
        "details": "Burns `tokenId`. See {ERC721-_burn}. Requirements: - The caller must own `tokenId` or be an approved operator."
      },
      "constructor": {
        "details": "Grants `DEFAULT_ADMIN_ROLE`, `MINTER_ROLE` and `PAUSER_ROLE` to the account that deploys the contract. Token URIs will be autogenerated based on `baseURI` and their token IDs. See {ERC721-tokenURI}."
      },
      "getApproved(uint256)": {
        "details": "See {IERC721-getApproved}."
      },
      "getNextTokenId()": {
        "details": "Returns the next token id See {ERC721-_mint}."
      },
      "getRoleAdmin(bytes32)": {
        "details": "Returns the admin role that controls `role`. See {grantRole} and {revokeRole}. To change a role's admin, use {_setRoleAdmin}."
      },
      "getRoleMember(bytes32,uint256)": {
        "details": "Returns one of the accounts that have `role`. `index` must be a value between 0 and {getRoleMemberCount}, non-inclusive. Role bearers are not sorted in any particular way, and their ordering may change at any point. WARNING: When using {getRoleMember} and {getRoleMemberCount}, make sure you perform all queries on the same block. See the following https://forum.openzeppelin.com/t/iterating-over-elements-on-enumerableset-in-openzeppelin-contracts/2296[forum post] for more information."
      },
      "getRoleMemberCount(bytes32)": {
        "details": "Returns the number of accounts that have `role`. Can be used together with {getRoleMember} to enumerate all bearers of a role."
      },
      "grantRole(bytes32,address)": {
        "details": "Overload {grantRole} to track enumerable memberships"
      },
      "hasRole(bytes32,address)": {
        "details": "Returns `true` if `account` has been granted `role`."
      },
      "isApprovedForAll(address,address)": {
        "details": "See {IERC721-isApprovedForAll}."
      },
      "mint(address)": {
        "details": "Creates a new token for `to`. Its token ID will be automatically assigned (and available on the emitted {IERC721-Transfer} event), and the token URI autogenerated based on the base URI passed at construction. See {ERC721-_mint}. Requirements: - the caller must have the `MINTER_ROLE`."
      },
      "name()": {
        "details": "See {IERC721Metadata-name}."
      },
      "ownerOf(uint256)": {
        "details": "See {IERC721-ownerOf}."
      },
      "pause()": {
        "details": "Pauses all token transfers. See {ERC721Pausable} and {Pausable-_pause}. Requirements: - the caller must have the `PAUSER_ROLE`."
      },
      "paused()": {
        "details": "Returns true if the contract is paused, and false otherwise."
      },
      "renounceRole(bytes32,address)": {
        "details": "Overload {renounceRole} to track enumerable memberships"
      },
      "revokeRole(bytes32,address)": {
        "details": "Overload {revokeRole} to track enumerable memberships"
      },
      "safeTransferFrom(address,address,uint256)": {
        "details": "See {IERC721-safeTransferFrom}."
      },
      "safeTransferFrom(address,address,uint256,bytes)": {
        "details": "See {IERC721-safeTransferFrom}."
      },
      "setApprovalForAll(address,bool)": {
        "details": "See {IERC721-setApprovalForAll}."
      },
      "supportsInterface(bytes4)": {
        "details": "See {IERC165-supportsInterface}."
      },
      "symbol()": {
        "details": "See {IERC721Metadata-symbol}."
      },
      "tokenByIndex(uint256)": {
        "details": "See {IERC721Enumerable-tokenByIndex}."
      },
      "tokenOfOwnerByIndex(address,uint256)": {
        "details": "See {IERC721Enumerable-tokenOfOwnerByIndex}."
      },
      "tokenURI(uint256)": {
        "details": "See {IERC721Metadata-tokenURI}."
      },
      "totalSupply()": {
        "details": "See {IERC721Enumerable-totalSupply}."
      },
      "transferFrom(address,address,uint256)": {
        "details": "See {IERC721-transferFrom}."
      },
      "unpause()": {
        "details": "Unpauses all token transfers. See {ERC721Pausable} and {Pausable-_unpause}. Requirements: - the caller must have the `PAUSER_ROLE`."
      }
    },
    "version": 1
  },
  "userdoc": {
    "kind": "user",
    "methods": {},
    "version": 1
  }
}