{
  "contractName": "GeoRewards",
  "abi": [
    {
      "inputs": [
        {
          "internalType": "string",
          "name": "name",
          "type": "string"
        },
        {
          "internalType": "string",
          "name": "symbol",
          "type": "string"
        },
        {
          "internalType": "string",
          "name": "baseTokenURI",
          "type": "string"
        }
      ],
      "stateMutability": "nonpayable",
      "type": "constructor"
    },
    {
      "anonymous": false,
      "inputs": [
        {
          "indexed": true,
          "internalType": "address",
          "name": "owner",
          "type": "address"
        },
        {
          "indexed": true,
          "internalType": "address",
          "name": "approved",
          "type": "address"
        },
        {
          "indexed": true,
          "internalType": "uint256",
          "name": "tokenId",
          "type": "uint256"
        }
      ],
      "name": "Approval",
      "type": "event"
    },
    {
      "anonymous": false,
      "inputs": [
        {
          "indexed": true,
          "internalType": "address",
          "name": "owner",
          "type": "address"
        },
        {
          "indexed": true,
          "internalType": "address",
          "name": "operator",
          "type": "address"
        },
        {
          "indexed": false,
          "internalType": "bool",
          "name": "approved",
          "type": "bool"
        }
      ],
      "name": "ApprovalForAll",
      "type": "event"
    },
    {
      "anonymous": false,
      "inputs": [
        {
          "indexed": false,
          "internalType": "address",
          "name": "account",
          "type": "address"
        }
      ],
      "name": "Paused",
      "type": "event"
    },
    {
      "anonymous": false,
      "inputs": [
        {
          "indexed": true,
          "internalType": "bytes32",
          "name": "role",
          "type": "bytes32"
        },
        {
          "indexed": true,
          "internalType": "bytes32",
          "name": "previousAdminRole",
          "type": "bytes32"
        },
        {
          "indexed": true,
          "internalType": "bytes32",
          "name": "newAdminRole",
          "type": "bytes32"
        }
      ],
      "name": "RoleAdminChanged",
      "type": "event"
    },
    {
      "anonymous": false,
      "inputs": [
        {
          "indexed": true,
          "internalType": "bytes32",
          "name": "role",
          "type": "bytes32"
        },
        {
          "indexed": true,
          "internalType": "address",
          "name": "account",
          "type": "address"
        },
        {
          "indexed": true,
          "internalType": "address",
          "name": "sender",
          "type": "address"
        }
      ],
      "name": "RoleGranted",
      "type": "event"
    },
    {
      "anonymous": false,
      "inputs": [
        {
          "indexed": true,
          "internalType": "bytes32",
          "name": "role",
          "type": "bytes32"
        },
        {
          "indexed": true,
          "internalType": "address",
          "name": "account",
          "type": "address"
        },
        {
          "indexed": true,
          "internalType": "address",
          "name": "sender",
          "type": "address"
        }
      ],
      "name": "RoleRevoked",
      "type": "event"
    },
    {
      "anonymous": false,
      "inputs": [
        {
          "indexed": true,
          "internalType": "address",
          "name": "from",
          "type": "address"
        },
        {
          "indexed": true,
          "internalType": "address",
          "name": "to",
          "type": "address"
        },
        {
          "indexed": true,
          "internalType": "uint256",
          "name": "tokenId",
          "type": "uint256"
        }
      ],
      "name": "Transfer",
      "type": "event"
    },
    {
      "anonymous": false,
      "inputs": [
        {
          "indexed": false,
          "internalType": "address",
          "name": "account",
          "type": "address"
        }
      ],
      "name": "Unpaused",
      "type": "event"
    },
    {
      "inputs": [],
      "name": "DEFAULT_ADMIN_ROLE",
      "outputs": [
        {
          "internalType": "bytes32",
          "name": "",
          "type": "bytes32"
        }
      ],
      "stateMutability": "view",
      "type": "function"
    },
    {
      "inputs": [],
      "name": "MINTER_ROLE",
      "outputs": [
        {
          "internalType": "bytes32",
          "name": "",
          "type": "bytes32"
        }
      ],
      "stateMutability": "view",
      "type": "function"
    },
    {
      "inputs": [],
      "name": "PAUSER_ROLE",
      "outputs": [
        {
          "internalType": "bytes32",
          "name": "",
          "type": "bytes32"
        }
      ],
      "stateMutability": "view",
      "type": "function"
    },
    {
      "inputs": [
        {
          "internalType": "address",
          "name": "to",
          "type": "address"
        },
        {
          "internalType": "uint256",
          "name": "tokenId",
          "type": "uint256"
        }
      ],
      "name": "approve",
      "outputs": [],
      "stateMutability": "nonpayable",
      "type": "function"
    },
    {
      "inputs": [
        {
          "internalType": "address",
          "name": "owner",
          "type": "address"
        }
      ],
      "name": "balanceOf",
      "outputs": [
        {
          "internalType": "uint256",
          "name": "",
          "type": "uint256"
        }
      ],
      "stateMutability": "view",
      "type": "function"
    },
    {
      "inputs": [
        {
          "internalType": "uint256",
          "name": "tokenId",
          "type": "uint256"
        }
      ],
      "name": "burn",
      "outputs": [],
      "stateMutability": "nonpayable",
      "type": "function"
    },
    {
      "inputs": [
        {
          "internalType": "uint256",
          "name": "tokenId",
          "type": "uint256"
        }
      ],
      "name": "getApproved",
      "outputs": [
        {
          "internalType": "address",
          "name": "",
          "type": "address"
        }
      ],
      "stateMutability": "view",
      "type": "function"
    },
    {
      "inputs": [
        {
          "internalType": "bytes32",
          "name": "role",
          "type": "bytes32"
        }
      ],
      "name": "getRoleAdmin",
      "outputs": [
        {
          "internalType": "bytes32",
          "name": "",
          "type": "bytes32"
        }
      ],
      "stateMutability": "view",
      "type": "function"
    },
    {
      "inputs": [
        {
          "internalType": "bytes32",
          "name": "role",
          "type": "bytes32"
        },
        {
          "internalType": "uint256",
          "name": "index",
          "type": "uint256"
        }
      ],
      "name": "getRoleMember",
      "outputs": [
        {
          "internalType": "address",
          "name": "",
          "type": "address"
        }
      ],
      "stateMutability": "view",
      "type": "function"
    },
    {
      "inputs": [
        {
          "internalType": "bytes32",
          "name": "role",
          "type": "bytes32"
        }
      ],
      "name": "getRoleMemberCount",
      "outputs": [
        {
          "internalType": "uint256",
          "name": "",
          "type": "uint256"
        }
      ],
      "stateMutability": "view",
      "type": "function"
    },
    {
      "inputs": [
        {
          "internalType": "bytes32",
          "name": "role",
          "type": "bytes32"
        },
        {
          "internalType": "address",
          "name": "account",
          "type": "address"
        }
      ],
      "name": "grantRole",
      "outputs": [],
      "stateMutability": "nonpayable",
      "type": "function"
    },
    {
      "inputs": [
        {
          "internalType": "bytes32",
          "name": "role",
          "type": "bytes32"
        },
        {
          "internalType": "address",
          "name": "account",
          "type": "address"
        }
      ],
      "name": "hasRole",
      "outputs": [
        {
          "internalType": "bool",
          "name": "",
          "type": "bool"
        }
      ],
      "stateMutability": "view",
      "type": "function"
    },
    {
      "inputs": [
        {
          "internalType": "address",
          "name": "owner",
          "type": "address"
        },
        {
          "internalType": "address",
          "name": "operator",
          "type": "address"
        }
      ],
      "name": "isApprovedForAll",
      "outputs": [
        {
          "internalType": "bool",
          "name": "",
          "type": "bool"
        }
      ],
      "stateMutability": "view",
      "type": "function"
    },
    {
      "inputs": [],
      "name": "name",
      "outputs": [
        {
          "internalType": "string",
          "name": "",
          "type": "string"
        }
      ],
      "stateMutability": "view",
      "type": "function"
    },
    {
      "inputs": [
        {
          "internalType": "uint256",
          "name": "tokenId",
          "type": "uint256"
        }
      ],
      "name": "ownerOf",
      "outputs": [
        {
          "internalType": "address",
          "name": "",
          "type": "address"
        }
      ],
      "stateMutability": "view",
      "type": "function"
    },
    {
      "inputs": [],
      "name": "paused",
      "outputs": [
        {
          "internalType": "bool",
          "name": "",
          "type": "bool"
        }
      ],
      "stateMutability": "view",
      "type": "function"
    },
    {
      "inputs": [
        {
          "internalType": "bytes32",
          "name": "role",
          "type": "bytes32"
        },
        {
          "internalType": "address",
          "name": "account",
          "type": "address"
        }
      ],
      "name": "renounceRole",
      "outputs": [],
      "stateMutability": "nonpayable",
      "type": "function"
    },
    {
      "inputs": [
        {
          "internalType": "bytes32",
          "name": "role",
          "type": "bytes32"
        },
        {
          "internalType": "address",
          "name": "account",
          "type": "address"
        }
      ],
      "name": "revokeRole",
      "outputs": [],
      "stateMutability": "nonpayable",
      "type": "function"
    },
    {
      "inputs": [
        {
          "internalType": "address",
          "name": "from",
          "type": "address"
        },
        {
          "internalType": "address",
          "name": "to",
          "type": "address"
        },
        {
          "internalType": "uint256",
          "name": "tokenId",
          "type": "uint256"
        }
      ],
      "name": "safeTransferFrom",
      "outputs": [],
      "stateMutability": "nonpayable",
      "type": "function"
    },
    {
      "inputs": [
        {
          "internalType": "address",
          "name": "from",
          "type": "address"
        },
        {
          "internalType": "address",
          "name": "to",
          "type": "address"
        },
        {
          "internalType": "uint256",
          "name": "tokenId",
          "type": "uint256"
        },
        {
          "internalType": "bytes",
          "name": "_data",
          "type": "bytes"
        }
      ],
      "name": "safeTransferFrom",
      "outputs": [],
      "stateMutability": "nonpayable",
      "type": "function"
    },
    {
      "inputs": [
        {
          "internalType": "address",
          "name": "operator",
          "type": "address"
        },
        {
          "internalType": "bool",
          "name": "approved",
          "type": "bool"
        }
      ],
      "name": "setApprovalForAll",
      "outputs": [],
      "stateMutability": "nonpayable",
      "type": "function"
    },
    {
      "inputs": [],
      "name": "symbol",
      "outputs": [
        {
          "internalType": "string",
          "name": "",
          "type": "string"
        }
      ],
      "stateMutability": "view",
      "type": "function"
    },
    {
      "inputs": [
        {
          "internalType": "uint256",
          "name": "index",
          "type": "uint256"
        }
      ],
      "name": "tokenByIndex",
      "outputs": [
        {
          "internalType": "uint256",
          "name": "",
          "type": "uint256"
        }
      ],
      "stateMutability": "view",
      "type": "function"
    },
    {
      "inputs": [
        {
          "internalType": "address",
          "name": "owner",
          "type": "address"
        },
        {
          "internalType": "uint256",
          "name": "index",
          "type": "uint256"
        }
      ],
      "name": "tokenOfOwnerByIndex",
      "outputs": [
        {
          "internalType": "uint256",
          "name": "",
          "type": "uint256"
        }
      ],
      "stateMutability": "view",
      "type": "function"
    },
    {
      "inputs": [
        {
          "internalType": "uint256",
          "name": "tokenId",
          "type": "uint256"
        }
      ],
      "name": "tokenURI",
      "outputs": [
        {
          "internalType": "string",
          "name": "",
          "type": "string"
        }
      ],
      "stateMutability": "view",
      "type": "function"
    },
    {
      "inputs": [],
      "name": "totalSupply",
      "outputs": [
        {
          "internalType": "uint256",
          "name": "",
          "type": "uint256"
        }
      ],
      "stateMutability": "view",
      "type": "function"
    },
    {
      "inputs": [
        {
          "internalType": "address",
          "name": "from",
          "type": "address"
        },
        {
          "internalType": "address",
          "name": "to",
          "type": "address"
        },
        {
          "internalType": "uint256",
          "name": "tokenId",
          "type": "uint256"
        }
      ],
      "name": "transferFrom",
      "outputs": [],
      "stateMutability": "nonpayable",
      "type": "function"
    },
    {
      "inputs": [
        {
          "internalType": "address",
          "name": "to",
          "type": "address"
        }
      ],
      "name": "mint",
      "outputs": [],
      "stateMutability": "nonpayable",
      "type": "function"
    },
    {
      "inputs": [],
      "name": "getNextTokenId",
      "outputs": [
        {
          "internalType": "uint256",
          "name": "",
          "type": "uint256"
        }
      ],
      "stateMutability": "view",
      "type": "function"
    },
    {
      "inputs": [
        {
          "internalType": "address",
          "name": "accountAddress",
          "type": "address"
        }
      ],
      "name": "getTokenIdByAddress",
      "outputs": [
        {
          "internalType": "uint256",
          "name": "",
          "type": "uint256"
        }
      ],
      "stateMutability": "view",
      "type": "function"
    },
    {
      "inputs": [],
      "name": "pause",
      "outputs": [],
      "stateMutability": "nonpayable",
      "type": "function"
    },
    {
      "inputs": [],
      "name": "unpause",
      "outputs": [],
      "stateMutability": "nonpayable",
      "type": "function"
    },
    {
      "inputs": [
        {
          "internalType": "bytes4",
          "name": "interfaceId",
          "type": "bytes4"
        }
      ],
      "name": "supportsInterface",
      "outputs": [
        {
          "internalType": "bool",
          "name": "",
          "type": "bool"
        }
      ],
      "stateMutability": "view",
      "type": "function"
    }
  ],
  "bytecode": "0x60806040523480156200001157600080fd5b5060405162004d3a38038062004d3a833981810160405281019062000037919062000508565b8282816002908051906020019062000051929190620003e6565b5080600390805190602001906200006a929190620003e6565b5050506000600c60006101000a81548160ff02191690831515021790555080600f9080519060200190620000a0929190620003e6565b50620000c56000801b620000b96200015060201b60201c565b6200015860201b60201c565b620001067f9f2df0fed2c77648de5860a4cc508cd0818c85b8b8a1ab4ceeef8d981c8956a6620000fa6200015060201b60201c565b6200015860201b60201c565b620001477f65d7a28e3265b37a6474929f336521b332c1681b933f6cb9f3376673440d862a6200013b6200015060201b60201c565b6200015860201b60201c565b505050620006da565b600033905090565b6200016f8282620001a060201b620014151760201c565b6200019b8160016000858152602001908152602001600020620001b660201b620014231790919060201c565b505050565b620001b28282620001ee60201b60201c565b5050565b6000620001e6836000018373ffffffffffffffffffffffffffffffffffffffff1660001b620002df60201b60201c565b905092915050565b6200020082826200035960201b60201c565b620002db57600160008084815260200190815260200160002060000160008373ffffffffffffffffffffffffffffffffffffffff1673ffffffffffffffffffffffffffffffffffffffff16815260200190815260200160002060006101000a81548160ff021916908315150217905550620002806200015060201b60201c565b73ffffffffffffffffffffffffffffffffffffffff168173ffffffffffffffffffffffffffffffffffffffff16837f2f8788117e7eff1d82e926ec794901d17c78024a50270940304540a733656f0d60405160405180910390a45b5050565b6000620002f38383620003c360201b60201c565b6200034e57826000018290806001815401808255809150506001900390600052602060002001600090919091909150558260000180549050836001016000848152602001908152602001600020819055506001905062000353565b600090505b92915050565b600080600084815260200190815260200160002060000160008373ffffffffffffffffffffffffffffffffffffffff1673ffffffffffffffffffffffffffffffffffffffff16815260200190815260200160002060009054906101000a900460ff16905092915050565b600080836001016000848152602001908152602001600020541415905092915050565b828054620003f49062000646565b90600052602060002090601f01602090048101928262000418576000855562000464565b82601f106200043357805160ff191683800117855562000464565b8280016001018555821562000464579182015b828111156200046357825182559160200191906001019062000446565b5b50905062000473919062000477565b5090565b5b808211156200049257600081600090555060010162000478565b5090565b6000620004ad620004a784620005dd565b620005a9565b905082815260208101848484011115620004c657600080fd5b620004d384828562000610565b509392505050565b600082601f830112620004ed57600080fd5b8151620004ff84826020860162000496565b91505092915050565b6000806000606084860312156200051e57600080fd5b600084015167ffffffffffffffff8111156200053957600080fd5b6200054786828701620004db565b935050602084015167ffffffffffffffff8111156200056557600080fd5b6200057386828701620004db565b925050604084015167ffffffffffffffff8111156200059157600080fd5b6200059f86828701620004db565b9150509250925092565b6000604051905081810181811067ffffffffffffffff82111715620005d357620005d2620006ab565b5b8060405250919050565b600067ffffffffffffffff821115620005fb57620005fa620006ab565b5b601f19601f8301169050602081019050919050565b60005b838110156200063057808201518184015260208101905062000613565b8381111562000640576000848401525b50505050565b600060028204905060018216806200065f57607f821691505b602082108114156200067657620006756200067c565b5b50919050565b7f4e487b7100000000000000000000000000000000000000000000000000000000600052602260045260246000fd5b7f4e487b7100000000000000000000000000000000000000000000000000000000600052604160045260246000fd5b61465080620006ea6000396000f3fe608060405234801561001057600080fd5b50600436106101fb5760003560e01c80636a6278421161011a578063a22cb465116100ad578063caa0f92a1161007c578063caa0f92a146105e6578063d539139314610604578063d547741f14610622578063e63ab1e91461063e578063e985e9c51461065c576101fb565b8063a22cb4651461054e578063b88d4fde1461056a578063c87b56dd14610586578063ca15c873146105b6576101fb565b80639010d07c116100e95780639010d07c146104b257806391d14854146104e257806395d89b4114610512578063a217fddf14610530576101fb565b80636a6278421461042c57806370a08231146104485780638456cb59146104785780638cbab7e414610482576101fb565b80632f745c591161019257806342966c681161016157806342966c68146103925780634f6ccce7146103ae5780635c975abb146103de5780636352211e146103fc576101fb565b80632f745c591461032057806336568abe146103505780633f4ba83a1461036c57806342842e0e14610376576101fb565b806318160ddd116101ce57806318160ddd1461029a57806323b872dd146102b8578063248a9ca3146102d45780632f2ff15d14610304576101fb565b806301ffc9a71461020057806306fdde0314610230578063081812fc1461024e578063095ea7b31461027e575b600080fd5b61021a60048036038101906102159190613253565b61068c565b6040516102279190613e3c565b60405180910390f35b61023861069e565b6040516102459190613e72565b60405180910390f35b610268600480360381019061026391906132a5565b610730565b6040516102759190613dd5565b60405180910390f35b61029860048036038101906102939190613176565b6107b5565b005b6102a26108cd565b6040516102af91906141f4565b60405180910390f35b6102d260048036038101906102cd9190613070565b6108da565b005b6102ee60048036038101906102e991906131b2565b61093a565b6040516102fb9190613e57565b60405180910390f35b61031e600480360381019061031991906131db565b610959565b005b61033a60048036038101906103359190613176565b61098d565b60405161034791906141f4565b60405180910390f35b61036a600480360381019061036591906131db565b610a32565b005b610374610a66565b005b610390600480360381019061038b9190613070565b610ae0565b005b6103ac60048036038101906103a791906132a5565b610b00565b005b6103c860048036038101906103c391906132a5565b610b5c565b6040516103d591906141f4565b60405180910390f35b6103e6610bf3565b6040516103f39190613e3c565b60405180910390f35b610416600480360381019061041191906132a5565b610c0a565b6040516104239190613dd5565b60405180910390f35b6104466004803603810190610441919061300b565b610cbc565b005b610462600480360381019061045d919061300b565b610d99565b60405161046f91906141f4565b60405180910390f35b610480610e51565b005b61049c6004803603810190610497919061300b565b610ecb565b6040516104a991906141f4565b60405180910390f35b6104cc60048036038101906104c79190613217565b610f14565b6040516104d99190613dd5565b60405180910390f35b6104fc60048036038101906104f791906131db565b610f43565b6040516105099190613e3c565b60405180910390f35b61051a610fad565b6040516105279190613e72565b60405180910390f35b61053861103f565b6040516105459190613e57565b60405180910390f35b6105686004803603810190610563919061313a565b611046565b005b610584600480360381019061057f91906130bf565b6111c7565b005b6105a0600480360381019061059b91906132a5565b611229565b6040516105ad9190613e72565b60405180910390f35b6105d060048036038101906105cb91906131b2565b6112d0565b6040516105dd91906141f4565b60405180910390f35b6105ee6112f4565b6040516105fb91906141f4565b60405180910390f35b61060c611305565b6040516106199190613e57565b60405180910390f35b61063c600480360381019061063791906131db565b611329565b005b61064661135d565b6040516106539190613e57565b60405180910390f35b61067660048036038101906106719190613034565b611381565b6040516106839190613e3c565b60405180910390f35b600061069782611453565b9050919050565b6060600280546106ad9061442e565b80601f01602080910402602001604051908101604052809291908181526020018280546106d99061442e565b80156107265780601f106106fb57610100808354040283529160200191610726565b820191906000526020600020905b81548152906001019060200180831161070957829003601f168201915b5050505050905090565b600061073b826114cd565b61077a576040517f08c379a0000000000000000000000000000000000000000000000000000000008152600401610771906140b4565b60405180910390fd5b6006600083815260200190815260200160002060009054906101000a900473ffffffffffffffffffffffffffffffffffffffff169050919050565b60006107c082610c0a565b90508073ffffffffffffffffffffffffffffffffffffffff168373ffffffffffffffffffffffffffffffffffffffff161415610831576040517f08c379a000000000000000000000000000000000000000000000000000000000815260040161082890614114565b60405180910390fd5b8073ffffffffffffffffffffffffffffffffffffffff16610850611539565b73ffffffffffffffffffffffffffffffffffffffff16148061087f575061087e81610879611539565b611381565b5b6108be576040517f08c379a00000000000000000000000000000000000000000000000000000000081526004016108b590614034565b60405180910390fd5b6108c88383611541565b505050565b6000600a80549050905090565b6108eb6108e5611539565b826115fa565b61092a576040517f08c379a000000000000000000000000000000000000000000000000000000000815260040161092190614134565b60405180910390fd5b6109358383836116d8565b505050565b6000806000838152602001908152602001600020600101549050919050565b6109638282611934565b610988816001600085815260200190815260200160002061142390919063ffffffff16565b505050565b600061099883610d99565b82106109d9576040517f08c379a00000000000000000000000000000000000000000000000000000000081526004016109d090613f14565b60405180910390fd5b600860008473ffffffffffffffffffffffffffffffffffffffff1673ffffffffffffffffffffffffffffffffffffffff168152602001908152602001600020600083815260200190815260200160002054905092915050565b610a3c828261199a565b610a618160016000858152602001908152602001600020611a1d90919063ffffffff16565b505050565b610a977f65d7a28e3265b37a6474929f336521b332c1681b933f6cb9f3376673440d862a610a92611539565b610f43565b610ad6576040517f08c379a0000000000000000000000000000000000000000000000000000000008152600401610acd906141b4565b60405180910390fd5b610ade611a4d565b565b610afb838383604051806020016040528060008152506111c7565b505050565b610b11610b0b611539565b826115fa565b610b50576040517f08c379a0000000000000000000000000000000000000000000000000000000008152600401610b4790614194565b60405180910390fd5b610b5981611aef565b50565b6000610b666108cd565b8210610ba7576040517f08c379a0000000000000000000000000000000000000000000000000000000008152600401610b9e90614154565b60405180910390fd5b600a8281548110610be1577f4e487b7100000000000000000000000000000000000000000000000000000000600052603260045260246000fd5b90600052602060002001549050919050565b6000600c60009054906101000a900460ff16905090565b6000806004600084815260200190815260200160002060009054906101000a900473ffffffffffffffffffffffffffffffffffffffff169050600073ffffffffffffffffffffffffffffffffffffffff168173ffffffffffffffffffffffffffffffffffffffff161415610cb3576040517f08c379a0000000000000000000000000000000000000000000000000000000008152600401610caa90614074565b60405180910390fd5b80915050919050565b610ced7f9f2df0fed2c77648de5860a4cc508cd0818c85b8b8a1ab4ceeef8d981c8956a6610ce8611539565b610f43565b610d2c576040517f08c379a0000000000000000000000000000000000000000000000000000000008152600401610d2390614174565b60405180910390fd5b610d3f81610d3a600d611c00565b611c0e565b610d49600d611c00565b600e60008373ffffffffffffffffffffffffffffffffffffffff1673ffffffffffffffffffffffffffffffffffffffff16815260200190815260200160002081905550610d96600d611ddc565b50565b60008073ffffffffffffffffffffffffffffffffffffffff168273ffffffffffffffffffffffffffffffffffffffff161415610e0a576040517f08c379a0000000000000000000000000000000000000000000000000000000008152600401610e0190614054565b60405180910390fd5b600560008373ffffffffffffffffffffffffffffffffffffffff1673ffffffffffffffffffffffffffffffffffffffff168152602001908152602001600020549050919050565b610e827f65d7a28e3265b37a6474929f336521b332c1681b933f6cb9f3376673440d862a610e7d611539565b610f43565b610ec1576040517f08c379a0000000000000000000000000000000000000000000000000000000008152600401610eb890613f74565b60405180910390fd5b610ec9611df2565b565b6000600e60008373ffffffffffffffffffffffffffffffffffffffff1673ffffffffffffffffffffffffffffffffffffffff168152602001908152602001600020549050919050565b6000610f3b8260016000868152602001908152602001600020611e9590919063ffffffff16565b905092915050565b600080600084815260200190815260200160002060000160008373ffffffffffffffffffffffffffffffffffffffff1673ffffffffffffffffffffffffffffffffffffffff16815260200190815260200160002060009054906101000a900460ff16905092915050565b606060038054610fbc9061442e565b80601f0160208091040260200160405190810160405280929190818152602001828054610fe89061442e565b80156110355780601f1061100a57610100808354040283529160200191611035565b820191906000526020600020905b81548152906001019060200180831161101857829003601f168201915b5050505050905090565b6000801b81565b61104e611539565b73ffffffffffffffffffffffffffffffffffffffff168273ffffffffffffffffffffffffffffffffffffffff1614156110bc576040517f08c379a00000000000000000000000000000000000000000000000000000000081526004016110b390613fb4565b60405180910390fd5b80600760006110c9611539565b73ffffffffffffffffffffffffffffffffffffffff1673ffffffffffffffffffffffffffffffffffffffff16815260200190815260200160002060008473ffffffffffffffffffffffffffffffffffffffff1673ffffffffffffffffffffffffffffffffffffffff16815260200190815260200160002060006101000a81548160ff0219169083151502179055508173ffffffffffffffffffffffffffffffffffffffff16611176611539565b73ffffffffffffffffffffffffffffffffffffffff167f17307eab39ab6107e8899845ad3d59bd9653f200f220920489ca2b5937696c31836040516111bb9190613e3c565b60405180910390a35050565b6111d86111d2611539565b836115fa565b611217576040517f08c379a000000000000000000000000000000000000000000000000000000000815260040161120e90614134565b60405180910390fd5b61122384848484611eaf565b50505050565b6060611234826114cd565b611273576040517f08c379a000000000000000000000000000000000000000000000000000000000815260040161126a906140f4565b60405180910390fd5b600061127d611f0b565b9050600081511161129d57604051806020016040528060008152506112c8565b806112a784611f9d565b6040516020016112b8929190613db1565b6040516020818303038152906040525b915050919050565b60006112ed6001600084815260200190815260200160002061214a565b9050919050565b6000611300600d611c00565b905090565b7f9f2df0fed2c77648de5860a4cc508cd0818c85b8b8a1ab4ceeef8d981c8956a681565b611333828261215f565b6113588160016000858152602001908152602001600020611a1d90919063ffffffff16565b505050565b7f65d7a28e3265b37a6474929f336521b332c1681b933f6cb9f3376673440d862a81565b6000600760008473ffffffffffffffffffffffffffffffffffffffff1673ffffffffffffffffffffffffffffffffffffffff16815260200190815260200160002060008373ffffffffffffffffffffffffffffffffffffffff1673ffffffffffffffffffffffffffffffffffffffff16815260200190815260200160002060009054906101000a900460ff16905092915050565b61141f82826121c5565b5050565b600061144b836000018373ffffffffffffffffffffffffffffffffffffffff1660001b6122a5565b905092915050565b60007f780e9d63000000000000000000000000000000000000000000000000000000007bffffffffffffffffffffffffffffffffffffffffffffffffffffffff1916827bffffffffffffffffffffffffffffffffffffffffffffffffffffffff191614806114c657506114c582612315565b5b9050919050565b60008073ffffffffffffffffffffffffffffffffffffffff166004600084815260200190815260200160002060009054906101000a900473ffffffffffffffffffffffffffffffffffffffff1673ffffffffffffffffffffffffffffffffffffffff1614159050919050565b600033905090565b816006600083815260200190815260200160002060006101000a81548173ffffffffffffffffffffffffffffffffffffffff021916908373ffffffffffffffffffffffffffffffffffffffff160217905550808273ffffffffffffffffffffffffffffffffffffffff166115b483610c0a565b73ffffffffffffffffffffffffffffffffffffffff167f8c5be1e5ebec7d5bd14f71427d1e84f3dd0314c0f7b2291e5b200ac8c7c3b92560405160405180910390a45050565b6000611605826114cd565b611644576040517f08c379a000000000000000000000000000000000000000000000000000000000815260040161163b90613fd4565b60405180910390fd5b600061164f83610c0a565b90508073ffffffffffffffffffffffffffffffffffffffff168473ffffffffffffffffffffffffffffffffffffffff1614806116be57508373ffffffffffffffffffffffffffffffffffffffff166116a684610730565b73ffffffffffffffffffffffffffffffffffffffff16145b806116cf57506116ce8185611381565b5b91505092915050565b8273ffffffffffffffffffffffffffffffffffffffff166116f882610c0a565b73ffffffffffffffffffffffffffffffffffffffff161461174e576040517f08c379a0000000000000000000000000000000000000000000000000000000008152600401611745906140d4565b60405180910390fd5b600073ffffffffffffffffffffffffffffffffffffffff168273ffffffffffffffffffffffffffffffffffffffff1614156117be576040517f08c379a00000000000000000000000000000000000000000000000000000000081526004016117b590613f94565b60405180910390fd5b6117c98383836123f7565b6117d4600082611541565b6001600560008573ffffffffffffffffffffffffffffffffffffffff1673ffffffffffffffffffffffffffffffffffffffff1681526020019081526020016000206000828254611824919061433a565b925050819055506001600560008473ffffffffffffffffffffffffffffffffffffffff1673ffffffffffffffffffffffffffffffffffffffff168152602001908152602001600020600082825461187b91906142b3565b92505081905550816004600083815260200190815260200160002060006101000a81548173ffffffffffffffffffffffffffffffffffffffff021916908373ffffffffffffffffffffffffffffffffffffffff160217905550808273ffffffffffffffffffffffffffffffffffffffff168473ffffffffffffffffffffffffffffffffffffffff167fddf252ad1be2c89b69c2b068fc378daa952ba7f163c4a11628f55a4df523b3ef60405160405180910390a4505050565b61194d6119408361093a565b611948611539565b610f43565b61198c576040517f08c379a000000000000000000000000000000000000000000000000000000000815260040161198390613ed4565b60405180910390fd5b61199682826121c5565b5050565b6119a2611539565b73ffffffffffffffffffffffffffffffffffffffff168173ffffffffffffffffffffffffffffffffffffffff1614611a0f576040517f08c379a0000000000000000000000000000000000000000000000000000000008152600401611a06906141d4565b60405180910390fd5b611a198282612407565b5050565b6000611a45836000018373ffffffffffffffffffffffffffffffffffffffff1660001b6124e8565b905092915050565b611a55610bf3565b611a94576040517f08c379a0000000000000000000000000000000000000000000000000000000008152600401611a8b90613ef4565b60405180910390fd5b6000600c60006101000a81548160ff0219169083151502179055507f5db9ee0a495bf2e6ff9c91a7834c1ba4fdd244a5e8aa4e537bd38aeae4b073aa611ad8611539565b604051611ae59190613dd5565b60405180910390a1565b6000611afa82610c0a565b9050611b08816000846123f7565b611b13600083611541565b6001600560008373ffffffffffffffffffffffffffffffffffffffff1673ffffffffffffffffffffffffffffffffffffffff1681526020019081526020016000206000828254611b63919061433a565b925050819055506004600083815260200190815260200160002060006101000a81549073ffffffffffffffffffffffffffffffffffffffff021916905581600073ffffffffffffffffffffffffffffffffffffffff168273ffffffffffffffffffffffffffffffffffffffff167fddf252ad1be2c89b69c2b068fc378daa952ba7f163c4a11628f55a4df523b3ef60405160405180910390a45050565b600081600001549050919050565b600073ffffffffffffffffffffffffffffffffffffffff168273ffffffffffffffffffffffffffffffffffffffff161415611c7e576040517f08c379a0000000000000000000000000000000000000000000000000000000008152600401611c7590614094565b60405180910390fd5b611c87816114cd565b15611cc7576040517f08c379a0000000000000000000000000000000000000000000000000000000008152600401611cbe90613f54565b60405180910390fd5b611cd3600083836123f7565b6001600560008473ffffffffffffffffffffffffffffffffffffffff1673ffffffffffffffffffffffffffffffffffffffff1681526020019081526020016000206000828254611d2391906142b3565b92505081905550816004600083815260200190815260200160002060006101000a81548173ffffffffffffffffffffffffffffffffffffffff021916908373ffffffffffffffffffffffffffffffffffffffff160217905550808273ffffffffffffffffffffffffffffffffffffffff16600073ffffffffffffffffffffffffffffffffffffffff167fddf252ad1be2c89b69c2b068fc378daa952ba7f163c4a11628f55a4df523b3ef60405160405180910390a45050565b6001816000016000828254019250508190555050565b611dfa610bf3565b15611e3a576040517f08c379a0000000000000000000000000000000000000000000000000000000008152600401611e3190614014565b60405180910390fd5b6001600c60006101000a81548160ff0219169083151502179055507f62e78cea01bee320cd4e420270b5ea74000d11b0c9f74754ebdbfc544b05a258611e7e611539565b604051611e8b9190613dd5565b60405180910390a1565b6000611ea48360000183612666565b60001c905092915050565b611eba8484846116d8565b611ec684848484612700565b611f05576040517f08c379a0000000000000000000000000000000000000000000000000000000008152600401611efc90613f34565b60405180910390fd5b50505050565b6060600f8054611f1a9061442e565b80601f0160208091040260200160405190810160405280929190818152602001828054611f469061442e565b8015611f935780601f10611f6857610100808354040283529160200191611f93565b820191906000526020600020905b815481529060010190602001808311611f7657829003601f168201915b5050505050905090565b60606000821415611fe5576040518060400160405280600181526020017f30000000000000000000000000000000000000000000000000000000000000008152509050612145565b600082905060005b6000821461201757808061200090614460565b915050600a826120109190614309565b9150611fed565b60008167ffffffffffffffff811115612059577f4e487b7100000000000000000000000000000000000000000000000000000000600052604160045260246000fd5b6040519080825280601f01601f19166020018201604052801561208b5781602001600182028036833780820191505090505b5090505b6000851461213e576001826120a4919061433a565b9150600a856120b391906144a9565b60306120bf91906142b3565b60f81b8183815181106120fb577f4e487b7100000000000000000000000000000000000000000000000000000000600052603260045260246000fd5b60200101907effffffffffffffffffffffffffffffffffffffffffffffffffffffffffffff1916908160001a905350600a856121379190614309565b945061208f565b8093505050505b919050565b600061215882600001612897565b9050919050565b61217861216b8361093a565b612173611539565b610f43565b6121b7576040517f08c379a00000000000000000000000000000000000000000000000000000000081526004016121ae90613ff4565b60405180910390fd5b6121c18282612407565b5050565b6121cf8282610f43565b6122a157600160008084815260200190815260200160002060000160008373ffffffffffffffffffffffffffffffffffffffff1673ffffffffffffffffffffffffffffffffffffffff16815260200190815260200160002060006101000a81548160ff021916908315150217905550612246611539565b73ffffffffffffffffffffffffffffffffffffffff168173ffffffffffffffffffffffffffffffffffffffff16837f2f8788117e7eff1d82e926ec794901d17c78024a50270940304540a733656f0d60405160405180910390a45b5050565b60006122b183836128a8565b61230a57826000018290806001815401808255809150506001900390600052602060002001600090919091909150558260000180549050836001016000848152602001908152602001600020819055506001905061230f565b600090505b92915050565b60007f80ac58cd000000000000000000000000000000000000000000000000000000007bffffffffffffffffffffffffffffffffffffffffffffffffffffffff1916827bffffffffffffffffffffffffffffffffffffffffffffffffffffffff191614806123e057507f5b5e139f000000000000000000000000000000000000000000000000000000007bffffffffffffffffffffffffffffffffffffffffffffffffffffffff1916827bffffffffffffffffffffffffffffffffffffffffffffffffffffffff1916145b806123f057506123ef826128cb565b5b9050919050565b612402838383612945565b505050565b6124118282610f43565b156124e457600080600084815260200190815260200160002060000160008373ffffffffffffffffffffffffffffffffffffffff1673ffffffffffffffffffffffffffffffffffffffff16815260200190815260200160002060006101000a81548160ff021916908315150217905550612489611539565b73ffffffffffffffffffffffffffffffffffffffff168173ffffffffffffffffffffffffffffffffffffffff16837ff6391f5c32d9c69d2a47ea670b442974b53935d1edc7fd64eb21e047a839171b60405160405180910390a45b5050565b6000808360010160008481526020019081526020016000205490506000811461265a57600060018261251a919061433a565b9050600060018660000180549050612532919061433a565b90506000866000018281548110612572577f4e487b7100000000000000000000000000000000000000000000000000000000600052603260045260246000fd5b90600052602060002001549050808760000184815481106125bc577f4e487b7100000000000000000000000000000000000000000000000000000000600052603260045260246000fd5b906000526020600020018190555083876001016000838152602001908152602001600020819055508660000180548061261e577f4e487b7100000000000000000000000000000000000000000000000000000000600052603160045260246000fd5b60019003818190600052602060002001600090559055866001016000878152602001908152602001600020600090556001945050505050612660565b60009150505b92915050565b6000818360000180549050116126b1576040517f08c379a00000000000000000000000000000000000000000000000000000000081526004016126a890613e94565b60405180910390fd5b8260000182815481106126ed577f4e487b7100000000000000000000000000000000000000000000000000000000600052603260045260246000fd5b9060005260206000200154905092915050565b60006127218473ffffffffffffffffffffffffffffffffffffffff1661299d565b1561288a578373ffffffffffffffffffffffffffffffffffffffff1663150b7a0261274a611539565b8786866040518563ffffffff1660e01b815260040161276c9493929190613df0565b602060405180830381600087803b15801561278657600080fd5b505af19250505080156127b757506040513d601f19601f820116820180604052508101906127b4919061327c565b60015b61283a573d80600081146127e7576040519150601f19603f3d011682016040523d82523d6000602084013e6127ec565b606091505b50600081511415612832576040517f08c379a000000000000000000000000000000000000000000000000000000000815260040161282990613f34565b60405180910390fd5b805181602001fd5b63150b7a0260e01b7bffffffffffffffffffffffffffffffffffffffffffffffffffffffff1916817bffffffffffffffffffffffffffffffffffffffffffffffffffffffff19161491505061288f565b600190505b949350505050565b600081600001805490509050919050565b600080836001016000848152602001908152602001600020541415905092915050565b60007f5a05180f000000000000000000000000000000000000000000000000000000007bffffffffffffffffffffffffffffffffffffffffffffffffffffffff1916827bffffffffffffffffffffffffffffffffffffffffffffffffffffffff1916148061293e575061293d826129b0565b5b9050919050565b612950838383612a2a565b612958610bf3565b15612998576040517f08c379a000000000000000000000000000000000000000000000000000000000815260040161298f90613eb4565b60405180910390fd5b505050565b600080823b905060008111915050919050565b60007f7965db0b000000000000000000000000000000000000000000000000000000007bffffffffffffffffffffffffffffffffffffffffffffffffffffffff1916827bffffffffffffffffffffffffffffffffffffffffffffffffffffffff19161480612a235750612a2282612b3e565b5b9050919050565b612a35838383612ba8565b600073ffffffffffffffffffffffffffffffffffffffff168373ffffffffffffffffffffffffffffffffffffffff161415612a7857612a7381612bad565b612ab7565b8173ffffffffffffffffffffffffffffffffffffffff168373ffffffffffffffffffffffffffffffffffffffff1614612ab657612ab58382612bf6565b5b5b600073ffffffffffffffffffffffffffffffffffffffff168273ffffffffffffffffffffffffffffffffffffffff161415612afa57612af581612d63565b612b39565b8273ffffffffffffffffffffffffffffffffffffffff168273ffffffffffffffffffffffffffffffffffffffff1614612b3857612b378282612ea6565b5b5b505050565b60007f01ffc9a7000000000000000000000000000000000000000000000000000000007bffffffffffffffffffffffffffffffffffffffffffffffffffffffff1916827bffffffffffffffffffffffffffffffffffffffffffffffffffffffff1916149050919050565b505050565b600a80549050600b600083815260200190815260200160002081905550600a81908060018154018082558091505060019003906000526020600020016000909190919091505550565b60006001612c0384610d99565b612c0d919061433a565b9050600060096000848152602001908152602001600020549050818114612cf2576000600860008673ffffffffffffffffffffffffffffffffffffffff1673ffffffffffffffffffffffffffffffffffffffff168152602001908152602001600020600084815260200190815260200160002054905080600860008773ffffffffffffffffffffffffffffffffffffffff1673ffffffffffffffffffffffffffffffffffffffff168152602001908152602001600020600084815260200190815260200160002081905550816009600083815260200190815260200160002081905550505b6009600084815260200190815260200160002060009055600860008573ffffffffffffffffffffffffffffffffffffffff1673ffffffffffffffffffffffffffffffffffffffff16815260200190815260200160002060008381526020019081526020016000206000905550505050565b60006001600a80549050612d77919061433a565b90506000600b60008481526020019081526020016000205490506000600a8381548110612dcd577f4e487b7100000000000000000000000000000000000000000000000000000000600052603260045260246000fd5b9060005260206000200154905080600a8381548110612e15577f4e487b7100000000000000000000000000000000000000000000000000000000600052603260045260246000fd5b906000526020600020018190555081600b600083815260200190815260200160002081905550600b600085815260200190815260200160002060009055600a805480612e8a577f4e487b7100000000000000000000000000000000000000000000000000000000600052603160045260246000fd5b6001900381819060005260206000200160009055905550505050565b6000612eb183610d99565b905081600860008573ffffffffffffffffffffffffffffffffffffffff1673ffffffffffffffffffffffffffffffffffffffff168152602001908152602001600020600083815260200190815260200160002081905550806009600084815260200190815260200160002081905550505050565b6000612f38612f3384614240565b61420f565b905082815260208101848484011115612f5057600080fd5b612f5b8482856143ec565b509392505050565b600081359050612f72816145a7565b92915050565b600081359050612f87816145be565b92915050565b600081359050612f9c816145d5565b92915050565b600081359050612fb1816145ec565b92915050565b600081519050612fc6816145ec565b92915050565b600082601f830112612fdd57600080fd5b8135612fed848260208601612f25565b91505092915050565b60008135905061300581614603565b92915050565b60006020828403121561301d57600080fd5b600061302b84828501612f63565b91505092915050565b6000806040838503121561304757600080fd5b600061305585828601612f63565b925050602061306685828601612f63565b9150509250929050565b60008060006060848603121561308557600080fd5b600061309386828701612f63565b93505060206130a486828701612f63565b92505060406130b586828701612ff6565b9150509250925092565b600080600080608085870312156130d557600080fd5b60006130e387828801612f63565b94505060206130f487828801612f63565b935050604061310587828801612ff6565b925050606085013567ffffffffffffffff81111561312257600080fd5b61312e87828801612fcc565b91505092959194509250565b6000806040838503121561314d57600080fd5b600061315b85828601612f63565b925050602061316c85828601612f78565b9150509250929050565b6000806040838503121561318957600080fd5b600061319785828601612f63565b92505060206131a885828601612ff6565b9150509250929050565b6000602082840312156131c457600080fd5b60006131d284828501612f8d565b91505092915050565b600080604083850312156131ee57600080fd5b60006131fc85828601612f8d565b925050602061320d85828601612f63565b9150509250929050565b6000806040838503121561322a57600080fd5b600061323885828601612f8d565b925050602061324985828601612ff6565b9150509250929050565b60006020828403121561326557600080fd5b600061327384828501612fa2565b91505092915050565b60006020828403121561328e57600080fd5b600061329c84828501612fb7565b91505092915050565b6000602082840312156132b757600080fd5b60006132c584828501612ff6565b91505092915050565b6132d78161436e565b82525050565b6132e681614380565b82525050565b6132f58161438c565b82525050565b600061330682614270565b6133108185614286565b93506133208185602086016143fb565b61332981614596565b840191505092915050565b600061333f8261427b565b6133498185614297565b93506133598185602086016143fb565b61336281614596565b840191505092915050565b60006133788261427b565b61338281856142a8565b93506133928185602086016143fb565b80840191505092915050565b60006133ab602283614297565b91507f456e756d657261626c655365743a20696e646578206f7574206f6620626f756e60008301527f64730000000000000000000000000000000000000000000000000000000000006020830152604082019050919050565b6000613411602b83614297565b91507f4552433732315061757361626c653a20746f6b656e207472616e73666572207760008301527f68696c65207061757365640000000000000000000000000000000000000000006020830152604082019050919050565b6000613477602f83614297565b91507f416363657373436f6e74726f6c3a2073656e646572206d75737420626520616e60008301527f2061646d696e20746f206772616e7400000000000000000000000000000000006020830152604082019050919050565b60006134dd601483614297565b91507f5061757361626c653a206e6f74207061757365640000000000000000000000006000830152602082019050919050565b600061351d602b83614297565b91507f455243373231456e756d657261626c653a206f776e657220696e646578206f7560008301527f74206f6620626f756e64730000000000000000000000000000000000000000006020830152604082019050919050565b6000613583603283614297565b91507f4552433732313a207472616e7366657220746f206e6f6e20455243373231526560008301527f63656976657220696d706c656d656e74657200000000000000000000000000006020830152604082019050919050565b60006135e9601c83614297565b91507f4552433732313a20746f6b656e20616c7265616479206d696e746564000000006000830152602082019050919050565b6000613629603e83614297565b91507f4552433732315072657365744d696e7465725061757365724175746f49643a2060008301527f6d75737420686176652070617573657220726f6c6520746f20706175736500006020830152604082019050919050565b600061368f602483614297565b91507f4552433732313a207472616e7366657220746f20746865207a65726f2061646460008301527f72657373000000000000000000000000000000000000000000000000000000006020830152604082019050919050565b60006136f5601983614297565b91507f4552433732313a20617070726f766520746f2063616c6c6572000000000000006000830152602082019050919050565b6000613735602c83614297565b91507f4552433732313a206f70657261746f7220717565727920666f72206e6f6e657860008301527f697374656e7420746f6b656e00000000000000000000000000000000000000006020830152604082019050919050565b600061379b603083614297565b91507f416363657373436f6e74726f6c3a2073656e646572206d75737420626520616e60008301527f2061646d696e20746f207265766f6b65000000000000000000000000000000006020830152604082019050919050565b6000613801601083614297565b91507f5061757361626c653a20706175736564000000000000000000000000000000006000830152602082019050919050565b6000613841603883614297565b91507f4552433732313a20617070726f76652063616c6c6572206973206e6f74206f7760008301527f6e6572206e6f7220617070726f76656420666f7220616c6c00000000000000006020830152604082019050919050565b60006138a7602a83614297565b91507f4552433732313a2062616c616e636520717565727920666f7220746865207a6560008301527f726f2061646472657373000000000000000000000000000000000000000000006020830152604082019050919050565b600061390d602983614297565b91507f4552433732313a206f776e657220717565727920666f72206e6f6e657869737460008301527f656e7420746f6b656e00000000000000000000000000000000000000000000006020830152604082019050919050565b6000613973602083614297565b91507f4552433732313a206d696e7420746f20746865207a65726f20616464726573736000830152602082019050919050565b60006139b3602c83614297565b91507f4552433732313a20617070726f76656420717565727920666f72206e6f6e657860008301527f697374656e7420746f6b656e00000000000000000000000000000000000000006020830152604082019050919050565b6000613a19602983614297565b91507f4552433732313a207472616e73666572206f6620746f6b656e2074686174206960008301527f73206e6f74206f776e00000000000000000000000000000000000000000000006020830152604082019050919050565b6000613a7f602f83614297565b91507f4552433732314d657461646174613a2055524920717565727920666f72206e6f60008301527f6e6578697374656e7420746f6b656e00000000000000000000000000000000006020830152604082019050919050565b6000613ae5602183614297565b91507f4552433732313a20617070726f76616c20746f2063757272656e74206f776e6560008301527f72000000000000000000000000000000000000000000000000000000000000006020830152604082019050919050565b6000613b4b603183614297565b91507f4552433732313a207472616e736665722063616c6c6572206973206e6f74206f60008301527f776e6572206e6f7220617070726f7665640000000000000000000000000000006020830152604082019050919050565b6000613bb1602c83614297565b91507f455243373231456e756d657261626c653a20676c6f62616c20696e646578206f60008301527f7574206f6620626f756e647300000000000000000000000000000000000000006020830152604082019050919050565b6000613c17603d83614297565b91507f4552433732315072657365744d696e7465725061757365724175746f49643a2060008301527f6d7573742068617665206d696e74657220726f6c6520746f206d696e740000006020830152604082019050919050565b6000613c7d603083614297565b91507f4552433732314275726e61626c653a2063616c6c6572206973206e6f74206f7760008301527f6e6572206e6f7220617070726f766564000000000000000000000000000000006020830152604082019050919050565b6000613ce3604083614297565b91507f4552433732315072657365744d696e7465725061757365724175746f49643a2060008301527f6d75737420686176652070617573657220726f6c6520746f20756e70617573656020830152604082019050919050565b6000613d49602f83614297565b91507f416363657373436f6e74726f6c3a2063616e206f6e6c792072656e6f756e636560008301527f20726f6c657320666f722073656c6600000000000000000000000000000000006020830152604082019050919050565b613dab816143e2565b82525050565b6000613dbd828561336d565b9150613dc9828461336d565b91508190509392505050565b6000602082019050613dea60008301846132ce565b92915050565b6000608082019050613e0560008301876132ce565b613e1260208301866132ce565b613e1f6040830185613da2565b8181036060830152613e3181846132fb565b905095945050505050565b6000602082019050613e5160008301846132dd565b92915050565b6000602082019050613e6c60008301846132ec565b92915050565b60006020820190508181036000830152613e8c8184613334565b905092915050565b60006020820190508181036000830152613ead8161339e565b9050919050565b60006020820190508181036000830152613ecd81613404565b9050919050565b60006020820190508181036000830152613eed8161346a565b9050919050565b60006020820190508181036000830152613f0d816134d0565b9050919050565b60006020820190508181036000830152613f2d81613510565b9050919050565b60006020820190508181036000830152613f4d81613576565b9050919050565b60006020820190508181036000830152613f6d816135dc565b9050919050565b60006020820190508181036000830152613f8d8161361c565b9050919050565b60006020820190508181036000830152613fad81613682565b9050919050565b60006020820190508181036000830152613fcd816136e8565b9050919050565b60006020820190508181036000830152613fed81613728565b9050919050565b6000602082019050818103600083015261400d8161378e565b9050919050565b6000602082019050818103600083015261402d816137f4565b9050919050565b6000602082019050818103600083015261404d81613834565b9050919050565b6000602082019050818103600083015261406d8161389a565b9050919050565b6000602082019050818103600083015261408d81613900565b9050919050565b600060208201905081810360008301526140ad81613966565b9050919050565b600060208201905081810360008301526140cd816139a6565b9050919050565b600060208201905081810360008301526140ed81613a0c565b9050919050565b6000602082019050818103600083015261410d81613a72565b9050919050565b6000602082019050818103600083015261412d81613ad8565b9050919050565b6000602082019050818103600083015261414d81613b3e565b9050919050565b6000602082019050818103600083015261416d81613ba4565b9050919050565b6000602082019050818103600083015261418d81613c0a565b9050919050565b600060208201905081810360008301526141ad81613c70565b9050919050565b600060208201905081810360008301526141cd81613cd6565b9050919050565b600060208201905081810360008301526141ed81613d3c565b9050919050565b60006020820190506142096000830184613da2565b92915050565b6000604051905081810181811067ffffffffffffffff8211171561423657614235614567565b5b8060405250919050565b600067ffffffffffffffff82111561425b5761425a614567565b5b601f19601f8301169050602081019050919050565b600081519050919050565b600081519050919050565b600082825260208201905092915050565b600082825260208201905092915050565b600081905092915050565b60006142be826143e2565b91506142c9836143e2565b9250827fffffffffffffffffffffffffffffffffffffffffffffffffffffffffffffffff038211156142fe576142fd6144da565b5b828201905092915050565b6000614314826143e2565b915061431f836143e2565b92508261432f5761432e614509565b5b828204905092915050565b6000614345826143e2565b9150614350836143e2565b925082821015614363576143626144da565b5b828203905092915050565b6000614379826143c2565b9050919050565b60008115159050919050565b6000819050919050565b60007fffffffff0000000000000000000000000000000000000000000000000000000082169050919050565b600073ffffffffffffffffffffffffffffffffffffffff82169050919050565b6000819050919050565b82818337600083830152505050565b60005b838110156144195780820151818401526020810190506143fe565b83811115614428576000848401525b50505050565b6000600282049050600182168061444657607f821691505b6020821081141561445a57614459614538565b5b50919050565b600061446b826143e2565b91507fffffffffffffffffffffffffffffffffffffffffffffffffffffffffffffffff82141561449e5761449d6144da565b5b600182019050919050565b60006144b4826143e2565b91506144bf836143e2565b9250826144cf576144ce614509565b5b828206905092915050565b7f4e487b7100000000000000000000000000000000000000000000000000000000600052601160045260246000fd5b7f4e487b7100000000000000000000000000000000000000000000000000000000600052601260045260246000fd5b7f4e487b7100000000000000000000000000000000000000000000000000000000600052602260045260246000fd5b7f4e487b7100000000000000000000000000000000000000000000000000000000600052604160045260246000fd5b6000601f19601f8301169050919050565b6145b08161436e565b81146145bb57600080fd5b50565b6145c781614380565b81146145d257600080fd5b50565b6145de8161438c565b81146145e957600080fd5b50565b6145f581614396565b811461460057600080fd5b50565b61460c816143e2565b811461461757600080fd5b5056fea264697066735822122017f2ca96713d84748e48e5ccaa7e8340e743d7925c956cab25a6ceb1cdbe2af964736f6c63430008000033",
  "immutableReferences": {},
  "source": "// SPDX-License-Identifier: MIT\r\n\r\npragma solidity ^0.8.0;\r\n\r\nimport \"../ERC721.sol\";\r\nimport \"../extensions/ERC721Enumerable.sol\";\r\nimport \"../extensions/ERC721Burnable.sol\";\r\nimport \"../extensions/ERC721Pausable.sol\";\r\nimport \"../../../access/AccessControlEnumerable.sol\";\r\nimport \"../../../utils/Context.sol\";\r\nimport \"../../../utils/Counters.sol\";\r\n\r\n/**\r\n * @dev {ERC721} token, including:\r\n *\r\n *  - ability for holders to burn (destroy) their tokens\r\n *  - a minter role that allows for token minting (creation)\r\n *  - a pauser role that allows to stop all token transfers\r\n *  - token ID and URI autogeneration\r\n *\r\n * This contract uses {AccessControl} to lock permissioned functions using the\r\n * different roles - head to its documentation for details.\r\n *\r\n * The account that deploys the contract will be granted the minter and pauser\r\n * roles, as well as the default admin role, which will let it grant both minter\r\n * and pauser roles to other accounts.\r\n */\r\ncontract GeoRewards is Context, AccessControlEnumerable, ERC721Enumerable, ERC721Burnable, ERC721Pausable {\r\n    using Counters for Counters.Counter;\r\n\r\n    bytes32 public constant MINTER_ROLE = keccak256(\"MINTER_ROLE\");\r\n    bytes32 public constant PAUSER_ROLE = keccak256(\"PAUSER_ROLE\");\r\n\r\n    Counters.Counter private _tokenIdTracker;\r\n    mapping(address => uint256) private _tokenData;\r\n\r\n    string private _baseTokenURI;\r\n\r\n    /**\r\n     * @dev Grants `DEFAULT_ADMIN_ROLE`, `MINTER_ROLE` and `PAUSER_ROLE` to the\r\n     * account that deploys the contract.\r\n     *\r\n     * Token URIs will be autogenerated based on `baseURI` and their token IDs.\r\n     * See {ERC721-tokenURI}.\r\n     */\r\n    constructor(string memory name, string memory symbol, string memory baseTokenURI) ERC721(name, symbol) {\r\n        _baseTokenURI = baseTokenURI;\r\n\r\n        _setupRole(DEFAULT_ADMIN_ROLE, _msgSender());\r\n\r\n        _setupRole(MINTER_ROLE, _msgSender());\r\n        _setupRole(PAUSER_ROLE, _msgSender());\r\n    }\r\n\r\n    function _baseURI() internal view virtual override returns (string memory) {\r\n        return _baseTokenURI;\r\n    }\r\n\r\n    /**\r\n     * @dev Creates a new token for `to`. Its token ID will be automatically\r\n     * assigned (and available on the emitted {IERC721-Transfer} event), and the token\r\n     * URI autogenerated based on the base URI passed at construction.\r\n     *\r\n     * See {ERC721-_mint}.\r\n     *\r\n     * Requirements:\r\n     *\r\n     * - the caller must have the `MINTER_ROLE`.\r\n     */\r\n    function mint(address to) public virtual {\r\n        require(hasRole(MINTER_ROLE, _msgSender()), \"ERC721PresetMinterPauserAutoId: must have minter role to mint\");\r\n\r\n        // We cannot just use balanceOf to create the new tokenId because tokens\r\n        // can be burned (destroyed), so we need a separate counter.\r\n        _mint(to, _tokenIdTracker.current());\r\n        _tokenData[to] = _tokenIdTracker.current();\r\n        _tokenIdTracker.increment();\r\n    }\r\n\r\n    /**\r\n     * @dev Returns the next token id\r\n     *\r\n     * See {ERC721-_mint}.\r\n     */\r\n\r\n    function getNextTokenId() public view returns(uint256 ) {\r\n        return _tokenIdTracker.current();\r\n\r\n    }\r\n\r\n    function getTokenIdByAddress(address accountAddress) public view returns(uint256 ) {\r\n        return _tokenData[accountAddress]; \r\n    }\r\n\r\n    /**\r\n     * @dev Pauses all token transfers.\r\n     *\r\n     * See {ERC721Pausable} and {Pausable-_pause}.\r\n     *\r\n     * Requirements:\r\n     *\r\n     * - the caller must have the `PAUSER_ROLE`.\r\n     */\r\n    function pause() public virtual {\r\n        require(hasRole(PAUSER_ROLE, _msgSender()), \"ERC721PresetMinterPauserAutoId: must have pauser role to pause\");\r\n        _pause();\r\n    }\r\n\r\n    /**\r\n     * @dev Unpauses all token transfers.\r\n     *\r\n     * See {ERC721Pausable} and {Pausable-_unpause}.\r\n     *\r\n     * Requirements:\r\n     *\r\n     * - the caller must have the `PAUSER_ROLE`.\r\n     */\r\n    function unpause() public virtual {\r\n        require(hasRole(PAUSER_ROLE, _msgSender()), \"ERC721PresetMinterPauserAutoId: must have pauser role to unpause\");\r\n        _unpause();\r\n    }\r\n\r\n    function _beforeTokenTransfer(address from, address to, uint256 tokenId) internal virtual override(ERC721, ERC721Enumerable, ERC721Pausable) {\r\n        super._beforeTokenTransfer(from, to, tokenId);\r\n    }\r\n\r\n    /**\r\n     * @dev See {IERC165-supportsInterface}.\r\n     */\r\n    function supportsInterface(bytes4 interfaceId) public view virtual override(AccessControlEnumerable, ERC721, ERC721Enumerable) returns (bool) {\r\n        return super.supportsInterface(interfaceId);\r\n    }\r\n}\r\n",
  "sourcePath": "C:/Users/RogerGangaSundararaj/Documents/GitHub/openzeppelin-contracts/contracts/token/ERC721/presets/GeoRewards.sol",
  "compiler": {
    "name": "solc",
    "version": "0.8.0+commit.c7dfd78e.Emscripten.clang"
  },
  "schemaVersion": "3.2.3",
  "updatedAt": "2021-03-26T13:45:13.045Z",
  "devdoc": {
    "details": "{ERC721} token, including:  - ability for holders to burn (destroy) their tokens  - a minter role that allows for token minting (creation)  - a pauser role that allows to stop all token transfers  - token ID and URI autogeneration This contract uses {AccessControl} to lock permissioned functions using the different roles - head to its documentation for details. The account that deploys the contract will be granted the minter and pauser roles, as well as the default admin role, which will let it grant both minter and pauser roles to other accounts.",
    "kind": "dev",
    "methods": {
      "approve(address,uint256)": {
        "details": "See {IERC721-approve}."
      },
      "balanceOf(address)": {
        "details": "See {IERC721-balanceOf}."
      },
      "burn(uint256)": {
        "details": "Burns `tokenId`. See {ERC721-_burn}. Requirements: - The caller must own `tokenId` or be an approved operator."
      },
      "constructor": {
        "details": "Grants `DEFAULT_ADMIN_ROLE`, `MINTER_ROLE` and `PAUSER_ROLE` to the account that deploys the contract. Token URIs will be autogenerated based on `baseURI` and their token IDs. See {ERC721-tokenURI}."
      },
      "getApproved(uint256)": {
        "details": "See {IERC721-getApproved}."
      },
      "getNextTokenId()": {
        "details": "Returns the next token id See {ERC721-_mint}."
      },
      "getRoleAdmin(bytes32)": {
        "details": "Returns the admin role that controls `role`. See {grantRole} and {revokeRole}. To change a role's admin, use {_setRoleAdmin}."
      },
      "getRoleMember(bytes32,uint256)": {
        "details": "Returns one of the accounts that have `role`. `index` must be a value between 0 and {getRoleMemberCount}, non-inclusive. Role bearers are not sorted in any particular way, and their ordering may change at any point. WARNING: When using {getRoleMember} and {getRoleMemberCount}, make sure you perform all queries on the same block. See the following https://forum.openzeppelin.com/t/iterating-over-elements-on-enumerableset-in-openzeppelin-contracts/2296[forum post] for more information."
      },
      "getRoleMemberCount(bytes32)": {
        "details": "Returns the number of accounts that have `role`. Can be used together with {getRoleMember} to enumerate all bearers of a role."
      },
      "grantRole(bytes32,address)": {
        "details": "Overload {grantRole} to track enumerable memberships"
      },
      "hasRole(bytes32,address)": {
        "details": "Returns `true` if `account` has been granted `role`."
      },
      "isApprovedForAll(address,address)": {
        "details": "See {IERC721-isApprovedForAll}."
      },
      "mint(address)": {
        "details": "Creates a new token for `to`. Its token ID will be automatically assigned (and available on the emitted {IERC721-Transfer} event), and the token URI autogenerated based on the base URI passed at construction. See {ERC721-_mint}. Requirements: - the caller must have the `MINTER_ROLE`."
      },
      "name()": {
        "details": "See {IERC721Metadata-name}."
      },
      "ownerOf(uint256)": {
        "details": "See {IERC721-ownerOf}."
      },
      "pause()": {
        "details": "Pauses all token transfers. See {ERC721Pausable} and {Pausable-_pause}. Requirements: - the caller must have the `PAUSER_ROLE`."
      },
      "paused()": {
        "details": "Returns true if the contract is paused, and false otherwise."
      },
      "renounceRole(bytes32,address)": {
        "details": "Overload {renounceRole} to track enumerable memberships"
      },
      "revokeRole(bytes32,address)": {
        "details": "Overload {revokeRole} to track enumerable memberships"
      },
      "safeTransferFrom(address,address,uint256)": {
        "details": "See {IERC721-safeTransferFrom}."
      },
      "safeTransferFrom(address,address,uint256,bytes)": {
        "details": "See {IERC721-safeTransferFrom}."
      },
      "setApprovalForAll(address,bool)": {
        "details": "See {IERC721-setApprovalForAll}."
      },
      "supportsInterface(bytes4)": {
        "details": "See {IERC165-supportsInterface}."
      },
      "symbol()": {
        "details": "See {IERC721Metadata-symbol}."
      },
      "tokenByIndex(uint256)": {
        "details": "See {IERC721Enumerable-tokenByIndex}."
      },
      "tokenOfOwnerByIndex(address,uint256)": {
        "details": "See {IERC721Enumerable-tokenOfOwnerByIndex}."
      },
      "tokenURI(uint256)": {
        "details": "See {IERC721Metadata-tokenURI}."
      },
      "totalSupply()": {
        "details": "See {IERC721Enumerable-totalSupply}."
      },
      "transferFrom(address,address,uint256)": {
        "details": "See {IERC721-transferFrom}."
      },
      "unpause()": {
        "details": "Unpauses all token transfers. See {ERC721Pausable} and {Pausable-_unpause}. Requirements: - the caller must have the `PAUSER_ROLE`."
      }
    },
    "version": 1
  },
  "userdoc": {
    "kind": "user",
    "methods": {},
    "version": 1
  }
}