{
  "contractName": "MigratableMockV1",
  "abi": [
    {
      "inputs": [],
      "name": "x",
      "outputs": [
        {
          "internalType": "uint256",
          "name": "",
          "type": "uint256"
        }
      ],
      "stateMutability": "view",
      "type": "function"
    },
    {
      "inputs": [
        {
          "internalType": "uint256",
          "name": "value",
          "type": "uint256"
        }
      ],
      "name": "initialize",
      "outputs": [],
      "stateMutability": "payable",
      "type": "function"
    }
  ],
  "bytecode": "0x608060405234801561001057600080fd5b506102b2806100206000396000f3fe6080604052600436106100295760003560e01c80630c55699c1461002e578063fe4b84df14610059575b600080fd5b34801561003a57600080fd5b50610043610075565b604051610050919061022f565b60405180910390f35b610073600480360381019061006e9190610171565b61007b565b005b60015481565b600060019054906101000a900460ff16806100a1575060008054906101000a900460ff16155b6100e0576040517f08c379a00000000000000000000000000000000000000000000000000000000081526004016100d79061020f565b60405180910390fd5b60008060019054906101000a900460ff161590508015610130576001600060016101000a81548160ff02191690831515021790555060016000806101000a81548160ff0219169083151502179055505b8160018190555080156101585760008060016101000a81548160ff0219169083151502179055505b5050565b60008135905061016b81610265565b92915050565b60006020828403121561018357600080fd5b60006101918482850161015c565b91505092915050565b60006101a7602e8361024a565b91507f496e697469616c697a61626c653a20636f6e747261637420697320616c72656160008301527f647920696e697469616c697a65640000000000000000000000000000000000006020830152604082019050919050565b6102098161025b565b82525050565b600060208201905081810360008301526102288161019a565b9050919050565b60006020820190506102446000830184610200565b92915050565b600082825260208201905092915050565b6000819050919050565b61026e8161025b565b811461027957600080fd5b5056fea2646970667358221220a6b18f151eaeb30273ceb58d01f9c813fe27e9a77db21270f84073789c3710ea64736f6c63430008000033",
  "immutableReferences": {},
  "source": "// SPDX-License-Identifier: MIT\r\n\r\npragma solidity ^0.8.0;\r\n\r\nimport \"../proxy/utils/Initializable.sol\";\r\n\r\n/**\r\n * @title MigratableMockV1\r\n * @dev This contract is a mock to test initializable functionality through migrations\r\n */\r\ncontract MigratableMockV1 is Initializable {\r\n  uint256 public x;\r\n\r\n  function initialize(uint256 value) public payable initializer {\r\n    x = value;\r\n  }\r\n}\r\n\r\n/**\r\n * @title MigratableMockV2\r\n * @dev This contract is a mock to test migratable functionality with params\r\n */\r\ncontract MigratableMockV2 is MigratableMockV1 {\r\n  bool internal _migratedV2;\r\n  uint256 public y;\r\n\r\n  function migrate(uint256 value, uint256 anotherValue) public payable {\r\n    require(!_migratedV2);\r\n    x = value;\r\n    y = anotherValue;\r\n    _migratedV2 = true;\r\n  }\r\n}\r\n\r\n/**\r\n * @title MigratableMockV3\r\n * @dev This contract is a mock to test migratable functionality without params\r\n */\r\ncontract MigratableMockV3 is MigratableMockV2 {\r\n  bool internal _migratedV3;\r\n\r\n  function migrate() public payable {\r\n    require(!_migratedV3);\r\n    uint256 oldX = x;\r\n    x = y;\r\n    y = oldX;\r\n    _migratedV3 = true;\r\n  }\r\n}\r\n",
  "sourcePath": "C:/Users/RogerGangaSundararaj/Documents/GitHub/openzeppelin-contracts/contracts/mocks/SingleInheritanceInitializableMocks.sol",
  "compiler": {
    "name": "solc",
    "version": "0.8.0+commit.c7dfd78e.Emscripten.clang"
  },
  "schemaVersion": "3.2.3",
  "updatedAt": "2021-03-26T09:42:14.124Z",
  "devdoc": {
    "details": "This contract is a mock to test initializable functionality through migrations",
    "kind": "dev",
    "methods": {},
    "title": "MigratableMockV1",
    "version": 1
  },
  "userdoc": {
    "kind": "user",
    "methods": {},
    "version": 1
  }
}