{
  "contractName": "SampleChild",
  "abi": [
    {
      "inputs": [],
      "name": "child",
      "outputs": [
        {
          "internalType": "uint256",
          "name": "",
          "type": "uint256"
        }
      ],
      "stateMutability": "view",
      "type": "function"
    },
    {
      "inputs": [],
      "name": "father",
      "outputs": [
        {
          "internalType": "uint256",
          "name": "",
          "type": "uint256"
        }
      ],
      "stateMutability": "view",
      "type": "function"
    },
    {
      "inputs": [],
      "name": "gramps",
      "outputs": [
        {
          "internalType": "string",
          "name": "",
          "type": "string"
        }
      ],
      "stateMutability": "view",
      "type": "function"
    },
    {
      "inputs": [],
      "name": "isHuman",
      "outputs": [
        {
          "internalType": "bool",
          "name": "",
          "type": "bool"
        }
      ],
      "stateMutability": "view",
      "type": "function"
    },
    {
      "inputs": [],
      "name": "mother",
      "outputs": [
        {
          "internalType": "uint256",
          "name": "",
          "type": "uint256"
        }
      ],
      "stateMutability": "view",
      "type": "function"
    },
    {
      "inputs": [
        {
          "internalType": "uint256",
          "name": "_mother",
          "type": "uint256"
        },
        {
          "internalType": "string",
          "name": "_gramps",
          "type": "string"
        },
        {
          "internalType": "uint256",
          "name": "_father",
          "type": "uint256"
        },
        {
          "internalType": "uint256",
          "name": "_child",
          "type": "uint256"
        }
      ],
      "name": "initialize",
      "outputs": [],
      "stateMutability": "nonpayable",
      "type": "function"
    },
    {
      "inputs": [],
      "name": "initialize",
      "outputs": [],
      "stateMutability": "nonpayable",
      "type": "function"
    },
    {
      "inputs": [
        {
          "internalType": "string",
          "name": "_gramps",
          "type": "string"
        },
        {
          "internalType": "uint256",
          "name": "_father",
          "type": "uint256"
        }
      ],
      "name": "initialize",
      "outputs": [],
      "stateMutability": "nonpayable",
      "type": "function"
    },
    {
      "inputs": [
        {
          "internalType": "string",
          "name": "value",
          "type": "string"
        }
      ],
      "name": "initialize",
      "outputs": [],
      "stateMutability": "nonpayable",
      "type": "function"
    },
    {
      "inputs": [
        {
          "internalType": "uint256",
          "name": "value",
          "type": "uint256"
        }
      ],
      "name": "initialize",
      "outputs": [],
      "stateMutability": "nonpayable",
      "type": "function"
    }
  ],
  "bytecode": "0x608060405234801561001057600080fd5b50610c6f806100206000396000f3fe608060405234801561001057600080fd5b506004361061009e5760003560e01c80638beaf7d7116100665780638beaf7d714610123578063ed7dfee31461013f578063f62d18881461015d578063fa39851f14610179578063fe4b84df146101975761009e565b80631c8aca3b146100a3578063237b5e96146100c15780634a6c9db6146100df5780636f2edbd2146100fd5780638129fc1c14610119575b600080fd5b6100ab6101b3565b6040516100b89190610a91565b60405180910390f35b6100c96101b9565b6040516100d69190610a91565b60405180910390f35b6100e76101bf565b6040516100f49190610a34565b60405180910390f35b610117600480360381019061011291906108fc565b6101d2565b005b6101216102c9565b005b61013d6004803603810190610138919061087f565b6103bd565b005b6101476104a8565b6040516101549190610a91565b60405180910390f35b6101776004803603810190610172919061083e565b6104ae565b005b6101816105a7565b60405161018e9190610a4f565b60405180910390f35b6101b160048036038101906101ac91906108d3565b610635565b005b60035481565b60045481565b600060029054906101000a900460ff1681565b600060019054906101000a900460ff16806101f8575060008054906101000a900460ff16155b610237576040517f08c379a000000000000000000000000000000000000000000000000000000000815260040161022e90610a71565b60405180910390fd5b60008060019054906101000a900460ff161590508015610287576001600060016101000a81548160ff02191690831515021790555060016000806101000a81548160ff0219169083151502179055505b61029085610635565b61029a84846103bd565b8160048190555080156102c25760008060016101000a81548160ff0219169083151502179055505b5050505050565b600060019054906101000a900460ff16806102ef575060008054906101000a900460ff16155b61032e576040517f08c379a000000000000000000000000000000000000000000000000000000000815260040161032590610a71565b60405180910390fd5b60008060019054906101000a900460ff16159050801561037e576001600060016101000a81548160ff02191690831515021790555060016000806101000a81548160ff0219169083151502179055505b6001600060026101000a81548160ff02191690831515021790555080156103ba5760008060016101000a81548160ff0219169083151502179055505b50565b600060019054906101000a900460ff16806103e3575060008054906101000a900460ff16155b610422576040517f08c379a000000000000000000000000000000000000000000000000000000000815260040161041990610a71565b60405180910390fd5b60008060019054906101000a900460ff161590508015610472576001600060016101000a81548160ff02191690831515021790555060016000806101000a81548160ff0219169083151502179055505b61047b836104ae565b8160038190555080156104a35760008060016101000a81548160ff0219169083151502179055505b505050565b60015481565b600060019054906101000a900460ff16806104d4575060008054906101000a900460ff16155b610513576040517f08c379a000000000000000000000000000000000000000000000000000000000815260040161050a90610a71565b60405180910390fd5b60008060019054906101000a900460ff161590508015610563576001600060016101000a81548160ff02191690831515021790555060016000806101000a81548160ff0219169083151502179055505b61056b6102c9565b816002908051906020019061058192919061071e565b5080156105a35760008060016101000a81548160ff0219169083151502179055505b5050565b600280546105b490610b81565b80601f01602080910402602001604051908101604052809291908181526020018280546105e090610b81565b801561062d5780601f106106025761010080835404028352916020019161062d565b820191906000526020600020905b81548152906001019060200180831161061057829003601f168201915b505050505081565b600060019054906101000a900460ff168061065b575060008054906101000a900460ff16155b61069a576040517f08c379a000000000000000000000000000000000000000000000000000000000815260040161069190610a71565b60405180910390fd5b60008060019054906101000a900460ff1615905080156106ea576001600060016101000a81548160ff02191690831515021790555060016000806101000a81548160ff0219169083151502179055505b6106f26102c9565b81600181905550801561071a5760008060016101000a81548160ff0219169083151502179055505b5050565b82805461072a90610b81565b90600052602060002090601f01602090048101928261074c5760008555610793565b82601f1061076557805160ff1916838001178555610793565b82800160010185558215610793579182015b82811115610792578251825591602001919060010190610777565b5b5090506107a091906107a4565b5090565b5b808211156107bd5760008160009055506001016107a5565b5090565b60006107d46107cf84610add565b610aac565b9050828152602081018484840111156107ec57600080fd5b6107f7848285610b3f565b509392505050565b600082601f83011261081057600080fd5b81356108208482602086016107c1565b91505092915050565b60008135905061083881610c22565b92915050565b60006020828403121561085057600080fd5b600082013567ffffffffffffffff81111561086a57600080fd5b610876848285016107ff565b91505092915050565b6000806040838503121561089257600080fd5b600083013567ffffffffffffffff8111156108ac57600080fd5b6108b8858286016107ff565b92505060206108c985828601610829565b9150509250929050565b6000602082840312156108e557600080fd5b60006108f384828501610829565b91505092915050565b6000806000806080858703121561091257600080fd5b600061092087828801610829565b945050602085013567ffffffffffffffff81111561093d57600080fd5b610949878288016107ff565b935050604061095a87828801610829565b925050606061096b87828801610829565b91505092959194509250565b61098081610b29565b82525050565b600061099182610b0d565b61099b8185610b18565b93506109ab818560208601610b4e565b6109b481610c11565b840191505092915050565b60006109cc602e83610b18565b91507f496e697469616c697a61626c653a20636f6e747261637420697320616c72656160008301527f647920696e697469616c697a65640000000000000000000000000000000000006020830152604082019050919050565b610a2e81610b35565b82525050565b6000602082019050610a496000830184610977565b92915050565b60006020820190508181036000830152610a698184610986565b905092915050565b60006020820190508181036000830152610a8a816109bf565b9050919050565b6000602082019050610aa66000830184610a25565b92915050565b6000604051905081810181811067ffffffffffffffff82111715610ad357610ad2610be2565b5b8060405250919050565b600067ffffffffffffffff821115610af857610af7610be2565b5b601f19601f8301169050602081019050919050565b600081519050919050565b600082825260208201905092915050565b60008115159050919050565b6000819050919050565b82818337600083830152505050565b60005b83811015610b6c578082015181840152602081019050610b51565b83811115610b7b576000848401525b50505050565b60006002820490506001821680610b9957607f821691505b60208210811415610bad57610bac610bb3565b5b50919050565b7f4e487b7100000000000000000000000000000000000000000000000000000000600052602260045260246000fd5b7f4e487b7100000000000000000000000000000000000000000000000000000000600052604160045260246000fd5b6000601f19601f8301169050919050565b610c2b81610b35565b8114610c3657600080fd5b5056fea26469706673582212209638f09ba404d6a04d1f8133b6117922b09a2032ba0044958ba13fa33f12f8ef64736f6c63430008000033",
  "immutableReferences": {},
  "source": "// SPDX-License-Identifier: MIT\r\n\r\npragma solidity ^0.8.0;\r\n\r\nimport \"../proxy/utils/Initializable.sol\";\r\n\r\n// Sample contracts showing upgradeability with multiple inheritance.\r\n// Child contract inherits from Father and Mother contracts, and Father extends from Gramps.\r\n//\r\n//         Human\r\n//       /       \\\r\n//      |       Gramps\r\n//      |         |\r\n//    Mother    Father\r\n//      |         |\r\n//      -- Child --\r\n\r\n/**\r\n * Sample base intializable contract that is a human\r\n */\r\ncontract SampleHuman is Initializable {\r\n  bool public isHuman;\r\n\r\n  function initialize() public initializer {\r\n    isHuman = true;\r\n  }\r\n}\r\n\r\n/**\r\n * Sample base intializable contract that defines a field mother\r\n */\r\ncontract SampleMother is Initializable, SampleHuman {\r\n  uint256 public mother;\r\n\r\n  function initialize(uint256 value) public initializer virtual {\r\n    SampleHuman.initialize();\r\n    mother = value;\r\n  }\r\n}\r\n\r\n/**\r\n * Sample base intializable contract that defines a field gramps\r\n */\r\ncontract SampleGramps is Initializable, SampleHuman {\r\n  string public gramps;\r\n\r\n  function initialize(string memory value) public initializer virtual {\r\n    SampleHuman.initialize();\r\n    gramps = value;\r\n  }\r\n}\r\n\r\n/**\r\n * Sample base intializable contract that defines a field father and extends from gramps\r\n */\r\ncontract SampleFather is Initializable, SampleGramps {\r\n  uint256 public father;\r\n\r\n  function initialize(string memory _gramps, uint256 _father) public initializer {\r\n    SampleGramps.initialize(_gramps);\r\n    father = _father;\r\n  }\r\n}\r\n\r\n/**\r\n * Child extends from mother, father (gramps)\r\n */\r\ncontract SampleChild is Initializable, SampleMother, SampleFather {\r\n  uint256 public child;\r\n\r\n  function initialize(uint256 _mother, string memory _gramps, uint256 _father, uint256 _child) public initializer {\r\n    SampleMother.initialize(_mother);\r\n    SampleFather.initialize(_gramps, _father);\r\n    child = _child;\r\n  }\r\n}\r\n",
  "sourcePath": "C:/Users/RogerGangaSundararaj/Documents/GitHub/openzeppelin-contracts/contracts/mocks/MultipleInheritanceInitializableMocks.sol",
  "compiler": {
    "name": "solc",
    "version": "0.8.0+commit.c7dfd78e.Emscripten.clang"
  },
  "schemaVersion": "3.2.3",
  "updatedAt": "2021-03-26T09:42:12.041Z",
  "devdoc": {
    "kind": "dev",
    "methods": {},
    "version": 1
  },
  "userdoc": {
    "kind": "user",
    "methods": {},
    "notice": "Child extends from mother, father (gramps)",
    "version": 1
  }
}