{
  "contractName": "SampleHuman",
  "abi": [
    {
      "inputs": [],
      "name": "isHuman",
      "outputs": [
        {
          "internalType": "bool",
          "name": "",
          "type": "bool"
        }
      ],
      "stateMutability": "view",
      "type": "function"
    },
    {
      "inputs": [],
      "name": "initialize",
      "outputs": [],
      "stateMutability": "nonpayable",
      "type": "function"
    }
  ],
  "bytecode": "0x608060405234801561001057600080fd5b5061026d806100206000396000f3fe608060405234801561001057600080fd5b50600436106100365760003560e01c80634a6c9db61461003b5780638129fc1c14610059575b600080fd5b610043610063565b60405161005091906101df565b60405180910390f35b610061610076565b005b600060029054906101000a900460ff1681565b600060019054906101000a900460ff168061009c575060008054906101000a900460ff16155b6100db576040517f08c379a00000000000000000000000000000000000000000000000000000000081526004016100d2906101fa565b60405180910390fd5b60008060019054906101000a900460ff16159050801561012b576001600060016101000a81548160ff02191690831515021790555060016000806101000a81548160ff0219169083151502179055505b6001600060026101000a81548160ff02191690831515021790555080156101675760008060016101000a81548160ff0219169083151502179055505b50565b6101738161022b565b82525050565b6000610186602e8361021a565b91507f496e697469616c697a61626c653a20636f6e747261637420697320616c72656160008301527f647920696e697469616c697a65640000000000000000000000000000000000006020830152604082019050919050565b60006020820190506101f4600083018461016a565b92915050565b6000602082019050818103600083015261021381610179565b9050919050565b600082825260208201905092915050565b6000811515905091905056fea2646970667358221220803eefcc114edd7a74e5c384f66cf736b5ec993a904321040e97497c07d3a53264736f6c63430008000033",
  "immutableReferences": {},
  "source": "// SPDX-License-Identifier: MIT\r\n\r\npragma solidity ^0.8.0;\r\n\r\nimport \"../proxy/utils/Initializable.sol\";\r\n\r\n// Sample contracts showing upgradeability with multiple inheritance.\r\n// Child contract inherits from Father and Mother contracts, and Father extends from Gramps.\r\n//\r\n//         Human\r\n//       /       \\\r\n//      |       Gramps\r\n//      |         |\r\n//    Mother    Father\r\n//      |         |\r\n//      -- Child --\r\n\r\n/**\r\n * Sample base intializable contract that is a human\r\n */\r\ncontract SampleHuman is Initializable {\r\n  bool public isHuman;\r\n\r\n  function initialize() public initializer {\r\n    isHuman = true;\r\n  }\r\n}\r\n\r\n/**\r\n * Sample base intializable contract that defines a field mother\r\n */\r\ncontract SampleMother is Initializable, SampleHuman {\r\n  uint256 public mother;\r\n\r\n  function initialize(uint256 value) public initializer virtual {\r\n    SampleHuman.initialize();\r\n    mother = value;\r\n  }\r\n}\r\n\r\n/**\r\n * Sample base intializable contract that defines a field gramps\r\n */\r\ncontract SampleGramps is Initializable, SampleHuman {\r\n  string public gramps;\r\n\r\n  function initialize(string memory value) public initializer virtual {\r\n    SampleHuman.initialize();\r\n    gramps = value;\r\n  }\r\n}\r\n\r\n/**\r\n * Sample base intializable contract that defines a field father and extends from gramps\r\n */\r\ncontract SampleFather is Initializable, SampleGramps {\r\n  uint256 public father;\r\n\r\n  function initialize(string memory _gramps, uint256 _father) public initializer {\r\n    SampleGramps.initialize(_gramps);\r\n    father = _father;\r\n  }\r\n}\r\n\r\n/**\r\n * Child extends from mother, father (gramps)\r\n */\r\ncontract SampleChild is Initializable, SampleMother, SampleFather {\r\n  uint256 public child;\r\n\r\n  function initialize(uint256 _mother, string memory _gramps, uint256 _father, uint256 _child) public initializer {\r\n    SampleMother.initialize(_mother);\r\n    SampleFather.initialize(_gramps, _father);\r\n    child = _child;\r\n  }\r\n}\r\n",
  "sourcePath": "C:/Users/RogerGangaSundararaj/Documents/GitHub/openzeppelin-contracts/contracts/mocks/MultipleInheritanceInitializableMocks.sol",
  "compiler": {
    "name": "solc",
    "version": "0.8.0+commit.c7dfd78e.Emscripten.clang"
  },
  "schemaVersion": "3.2.3",
  "updatedAt": "2021-03-26T09:42:12.340Z",
  "devdoc": {
    "kind": "dev",
    "methods": {},
    "version": 1
  },
  "userdoc": {
    "kind": "user",
    "methods": {},
    "notice": "Sample base intializable contract that is a human",
    "version": 1
  }
}